

Microchip MPLAB XC8 Assembler V2.32 build 20210201212658 
                                                                                               Sun Apr 18 17:56:16 2021

Microchip MPLAB XC8 C Compiler v2.32 (Free license) build 20210201212658 Og1 
     1                           	processor	16F887
     2                           	pagewidth 120
     3                           	opt	flic
     4                           	psect	cinit,global,class=CODE,merge=1,delta=2
     5                           	psect	cstackCOMMON,global,class=COMMON,space=1,delta=1,noexec
     6                           	psect	maintext,global,class=CODE,split=1,delta=2
     7                           	psect	config,global,abs,ovrld,class=CONFIG,space=4,delta=2,noexec
     8                           	dabs	1,0x7E,2
     9  0000                     
    10                           ; Version 2.20
    11                           ; Generated 12/02/2020 GMT
    12                           ; 
    13                           ; Copyright © 2020, Microchip Technology Inc. and its subsidiaries ("Microchip")
    14                           ; All rights reserved.
    15                           ; 
    16                           ; This software is developed by Microchip Technology Inc. and its subsidiaries ("Microch
      +                          ip").
    17                           ; 
    18                           ; Redistribution and use in source and binary forms, with or without modification, are
    19                           ; permitted provided that the following conditions are met:
    20                           ; 
    21                           ;     1. Redistributions of source code must retain the above copyright notice, this lis
      +                          t of
    22                           ;        conditions and the following disclaimer.
    23                           ; 
    24                           ;     2. Redistributions in binary form must reproduce the above copyright notice, this 
      +                          list
    25                           ;        of conditions and the following disclaimer in the documentation and/or other
    26                           ;        materials provided with the distribution.
    27                           ; 
    28                           ;     3. Microchip's name may not be used to endorse or promote products derived from th
      +                          is
    29                           ;        software without specific prior written permission.
    30                           ; 
    31                           ; THIS SOFTWARE IS PROVIDED BY MICROCHIP "AS IS" AND ANY EXPRESS OR IMPLIED WARRANTIES,
    32                           ; INCLUDING, BUT NOT LIMITED TO, THE IMPLIED WARRANTIES OF MERCHANTABILITY AND FITNESS F
      +                          OR
    33                           ; PURPOSE ARE DISCLAIMED.  IN NO EVENT SHALL MICROCHIP BE LIABLE FOR ANY DIRECT, INDIREC
      +                          T,
    34                           ; INCIDENTAL, SPECIAL, EXEMPLARY, OR CONSEQUENTIAL DAMAGES (INCLUDING BUT NOT LIMITED TO
    35                           ; PROCUREMENT OF SUBSTITUTE GOODS OR SERVICES; LOSS OF USE, DATA OR PROFITS; OR BUSINESS
    36                           ; INTERRUPTION) HOWSOEVER CAUSED AND ON ANY THEORY OF LIABILITY, WHETHER IN CONTRACT, ST
      +                          RICT
    37                           ; LIABILITY, OR TORT (INCLUDING NEGLIGENCE OR OTHERWISE) ARISING IN ANY WAY OUT OF THE U
      +                          SE OF
    38                           ; THIS SOFTWARE, EVEN IF ADVISED OF THE POSSIBILITY OF SUCH DAMAGE.
    39                           ; 
    40                           ; 
    41                           ; Code-generator required, PIC16F887 Definitions
    42                           ; 
    43                           ; SFR Addresses
    44  0000                     	;# 
    45  0001                     	;# 
    46  0002                     	;# 
    47  0003                     	;# 
    48  0004                     	;# 
    49  0005                     	;# 
    50  0006                     	;# 
    51  0007                     	;# 
    52  0008                     	;# 
    53  0009                     	;# 
    54  000A                     	;# 
    55  000B                     	;# 
    56  000C                     	;# 
    57  000D                     	;# 
    58  000E                     	;# 
    59  000E                     	;# 
    60  000F                     	;# 
    61  0010                     	;# 
    62  0011                     	;# 
    63  0012                     	;# 
    64  0013                     	;# 
    65  0014                     	;# 
    66  0015                     	;# 
    67  0015                     	;# 
    68  0016                     	;# 
    69  0017                     	;# 
    70  0018                     	;# 
    71  0019                     	;# 
    72  001A                     	;# 
    73  001B                     	;# 
    74  001B                     	;# 
    75  001C                     	;# 
    76  001D                     	;# 
    77  001E                     	;# 
    78  001F                     	;# 
    79  0081                     	;# 
    80  0085                     	;# 
    81  0086                     	;# 
    82  0087                     	;# 
    83  0088                     	;# 
    84  0089                     	;# 
    85  008C                     	;# 
    86  008D                     	;# 
    87  008E                     	;# 
    88  008F                     	;# 
    89  0090                     	;# 
    90  0091                     	;# 
    91  0092                     	;# 
    92  0093                     	;# 
    93  0093                     	;# 
    94  0093                     	;# 
    95  0094                     	;# 
    96  0095                     	;# 
    97  0096                     	;# 
    98  0097                     	;# 
    99  0098                     	;# 
   100  0099                     	;# 
   101  009A                     	;# 
   102  009B                     	;# 
   103  009C                     	;# 
   104  009D                     	;# 
   105  009E                     	;# 
   106  009F                     	;# 
   107  0105                     	;# 
   108  0107                     	;# 
   109  0108                     	;# 
   110  0109                     	;# 
   111  010C                     	;# 
   112  010C                     	;# 
   113  010D                     	;# 
   114  010E                     	;# 
   115  010F                     	;# 
   116  0185                     	;# 
   117  0187                     	;# 
   118  0188                     	;# 
   119  0189                     	;# 
   120  018C                     	;# 
   121  018D                     	;# 
   122  0000                     	;# 
   123  0001                     	;# 
   124  0002                     	;# 
   125  0003                     	;# 
   126  0004                     	;# 
   127  0005                     	;# 
   128  0006                     	;# 
   129  0007                     	;# 
   130  0008                     	;# 
   131  0009                     	;# 
   132  000A                     	;# 
   133  000B                     	;# 
   134  000C                     	;# 
   135  000D                     	;# 
   136  000E                     	;# 
   137  000E                     	;# 
   138  000F                     	;# 
   139  0010                     	;# 
   140  0011                     	;# 
   141  0012                     	;# 
   142  0013                     	;# 
   143  0014                     	;# 
   144  0015                     	;# 
   145  0015                     	;# 
   146  0016                     	;# 
   147  0017                     	;# 
   148  0018                     	;# 
   149  0019                     	;# 
   150  001A                     	;# 
   151  001B                     	;# 
   152  001B                     	;# 
   153  001C                     	;# 
   154  001D                     	;# 
   155  001E                     	;# 
   156  001F                     	;# 
   157  0081                     	;# 
   158  0085                     	;# 
   159  0086                     	;# 
   160  0087                     	;# 
   161  0088                     	;# 
   162  0089                     	;# 
   163  008C                     	;# 
   164  008D                     	;# 
   165  008E                     	;# 
   166  008F                     	;# 
   167  0090                     	;# 
   168  0091                     	;# 
   169  0092                     	;# 
   170  0093                     	;# 
   171  0093                     	;# 
   172  0093                     	;# 
   173  0094                     	;# 
   174  0095                     	;# 
   175  0096                     	;# 
   176  0097                     	;# 
   177  0098                     	;# 
   178  0099                     	;# 
   179  009A                     	;# 
   180  009B                     	;# 
   181  009C                     	;# 
   182  009D                     	;# 
   183  009E                     	;# 
   184  009F                     	;# 
   185  0105                     	;# 
   186  0107                     	;# 
   187  0108                     	;# 
   188  0109                     	;# 
   189  010C                     	;# 
   190  010C                     	;# 
   191  010D                     	;# 
   192  010E                     	;# 
   193  010F                     	;# 
   194  0185                     	;# 
   195  0187                     	;# 
   196  0188                     	;# 
   197  0189                     	;# 
   198  018C                     	;# 
   199  018D                     	;# 
   200  0006                     _PORTB	set	6
   201  0037                     _RB7	set	55
   202  0033                     _RB3	set	51
   203  0036                     _RB6	set	54
   204  0032                     _RB2	set	50
   205  0035                     _RB5	set	53
   206  0031                     _RB1	set	49
   207  0034                     _RB4	set	52
   208  0030                     _RB0	set	48
   209  0096                     _IOCB	set	150
   210  0081                     _OPTION_REG	set	129
   211  0095                     _WPUB	set	149
   212  0086                     _TRISB	set	134
   213  0189                     _ANSELH	set	393
   214                           
   215                           	psect	cinit
   216  07FC                     start_initialization:	
   217                           ; #config settings
   218                           
   219  07FC                     __initialization:
   220  07FC                     end_of_initialization:	
   221                           ;End of C runtime variable initialization code
   222                           
   223  07FC                     __end_of__initialization:
   224  07FC  0183               	clrf	3
   225  07FD  120A  118A  2F49   	ljmp	_main	;jump to C main() function
   226                           
   227                           	psect	cstackCOMMON
   228  0070                     __pcstackCOMMON:
   229  0070                     ??_main:
   230  0070                     ?_main:	
   231                           ; 1 bytes @ 0x0
   232                           
   233                           
   234                           ; 2 bytes @ 0x0
   235  0070                     	ds	3
   236                           
   237                           	psect	maintext
   238  0749                     __pmaintext:	
   239 ;;
   240 ;;Main: autosize = 0, tempsize = 3, incstack = 0, save=0
   241 ;;
   242 ;; *************** function _main *****************
   243 ;; Defined at:
   244 ;;		line 18 in file "main.c"
   245 ;; Parameters:    Size  Location     Type
   246 ;;		None
   247 ;; Auto vars:     Size  Location     Type
   248 ;;		None
   249 ;; Return value:  Size  Location     Type
   250 ;;                  2   34[None  ] int 
   251 ;; Registers used:
   252 ;;		wreg, status,2
   253 ;; Tracked objects:
   254 ;;		On entry : B00/0
   255 ;;		On exit  : 0/0
   256 ;;		Unchanged: 0/0
   257 ;; Data sizes:     COMMON   BANK0   BANK1   BANK3   BANK2
   258 ;;      Params:         0       0       0       0       0
   259 ;;      Locals:         0       0       0       0       0
   260 ;;      Temps:          3       0       0       0       0
   261 ;;      Totals:         3       0       0       0       0
   262 ;;Total ram usage:        3 bytes
   263 ;; This function calls:
   264 ;;		Nothing
   265 ;; This function is called by:
   266 ;;		Startup code after reset
   267 ;; This function uses a non-reentrant model
   268 ;;
   269                           
   270                           
   271                           ;psect for function _main
   272  0749                     _main:
   273  0749                     l638:	
   274                           ;incstack = 0
   275                           ; Regs used in _main: [wreg+status,2]
   276                           
   277                           
   278                           ;main.c: 20:                 RB4 = !RB4;
   279  0749  1683               	bsf	3,5	;RP0=1, select bank3
   280  074A  1703               	bsf	3,6	;RP1=1, select bank3
   281  074B  0189               	clrf	9	;volatile
   282                           
   283                           ;main.c: 21:                 _delay((unsigned long)((100)*(20000000/4000.0)));
   284  074C  1283               	bcf	3,5	;RP0=0, select bank0
   285  074D  1303               	bcf	3,6	;RP1=0, select bank0
   286  074E  0186               	clrf	6	;volatile
   287  074F                     l640:
   288                           
   289                           ;main.c: 22:             }
   290  074F  300F               	movlw	15
   291  0750  1683               	bsf	3,5	;RP0=1, select bank1
   292  0751  1303               	bcf	3,6	;RP1=0, select bank1
   293  0752  0086               	movwf	6	;volatile
   294  0753                     l642:
   295                           
   296                           ;main.c: 23:         }
   297  0753  300F               	movlw	15
   298  0754  0095               	movwf	21	;volatile
   299  0755                     l644:
   300                           
   301                           ;main.c: 24: 
   302  0755  307F               	movlw	127
   303  0756  0081               	movwf	1	;volatile
   304  0757                     l646:
   305                           
   306                           ;main.c: 25:         if(RB1 == 0)
   307  0757  0196               	clrf	22	;volatile
   308  0758                     l648:
   309                           
   310                           ;main.c: 28: ;main.c: 29:             if(RB1 == 0)
   311  0758  1283               	bcf	3,5	;RP0=0, select bank0
   312  0759  1303               	bcf	3,6	;RP1=0, select bank0
   313  075A  1806               	btfsc	6,0	;volatile
   314  075B  2F5D               	goto	u11
   315  075C  2F5E               	goto	u10
   316  075D                     u11:
   317  075D  2F80               	goto	l656
   318  075E                     u10:
   319  075E                     l650:
   320                           
   321                           ;main.c: 30:             {;main.c: 31:                 RB5 = !RB5;
   322  075E  3003               	movlw	3
   323  075F  00F2               	movwf	??_main+2
   324  0760  308A               	movlw	138
   325  0761  00F1               	movwf	??_main+1
   326  0762  3055               	movlw	85
   327  0763  00F0               	movwf	??_main
   328  0764                     u97:
   329  0764  0BF0               	decfsz	??_main,f
   330  0765  2F64               	goto	u97
   331  0766  0BF1               	decfsz	??_main+1,f
   332  0767  2F64               	goto	u97
   333  0768  0BF2               	decfsz	??_main+2,f
   334  0769  2F64               	goto	u97
   335  076A  2F6B               	nop2
   336  076B                     l652:
   337                           
   338                           ;main.c: 33:             }
   339  076B  1283               	bcf	3,5	;RP0=0, select bank0
   340  076C  1303               	bcf	3,6	;RP1=0, select bank0
   341  076D  1806               	btfsc	6,0	;volatile
   342  076E  2F70               	goto	u21
   343  076F  2F71               	goto	u20
   344  0770                     u21:
   345  0770  2F80               	goto	l656
   346  0771                     u20:
   347  0771                     l654:
   348                           
   349                           ;main.c: 34:         };main.c: 35: 
   350  0771  3010               	movlw	16
   351  0772  0686               	xorwf	6,f
   352                           
   353                           ;main.c: 36:         if(RB2 == 0)
   354  0773  3003               	movlw	3
   355  0774  00F2               	movwf	??_main+2
   356  0775  308A               	movlw	138
   357  0776  00F1               	movwf	??_main+1
   358  0777  3055               	movlw	85
   359  0778  00F0               	movwf	??_main
   360  0779                     u107:
   361  0779  0BF0               	decfsz	??_main,f
   362  077A  2F79               	goto	u107
   363  077B  0BF1               	decfsz	??_main+1,f
   364  077C  2F79               	goto	u107
   365  077D  0BF2               	decfsz	??_main+2,f
   366  077E  2F79               	goto	u107
   367  077F  2F80               	nop2
   368  0780                     l656:
   369                           
   370                           ;main.c: 40:             if(RB2 == 0)
   371  0780  1283               	bcf	3,5	;RP0=0, select bank0
   372  0781  1303               	bcf	3,6	;RP1=0, select bank0
   373  0782  1886               	btfsc	6,1	;volatile
   374  0783  2F85               	goto	u31
   375  0784  2F86               	goto	u30
   376  0785                     u31:
   377  0785  2FA8               	goto	l664
   378  0786                     u30:
   379  0786                     l658:
   380                           
   381                           ;main.c: 41:             {;main.c: 42:                 RB6 = !RB6;
   382  0786  3003               	movlw	3
   383  0787  00F2               	movwf	??_main+2
   384  0788  308A               	movlw	138
   385  0789  00F1               	movwf	??_main+1
   386  078A  3055               	movlw	85
   387  078B  00F0               	movwf	??_main
   388  078C                     u117:
   389  078C  0BF0               	decfsz	??_main,f
   390  078D  2F8C               	goto	u117
   391  078E  0BF1               	decfsz	??_main+1,f
   392  078F  2F8C               	goto	u117
   393  0790  0BF2               	decfsz	??_main+2,f
   394  0791  2F8C               	goto	u117
   395  0792  2F93               	nop2
   396  0793                     l660:
   397                           
   398                           ;main.c: 44:             }
   399  0793  1283               	bcf	3,5	;RP0=0, select bank0
   400  0794  1303               	bcf	3,6	;RP1=0, select bank0
   401  0795  1886               	btfsc	6,1	;volatile
   402  0796  2F98               	goto	u41
   403  0797  2F99               	goto	u40
   404  0798                     u41:
   405  0798  2FA8               	goto	l664
   406  0799                     u40:
   407  0799                     l662:
   408                           
   409                           ;main.c: 45:         };main.c: 46: 
   410  0799  3020               	movlw	32
   411  079A  0686               	xorwf	6,f
   412                           
   413                           ;main.c: 47:         if(RB3 == 0)
   414  079B  3003               	movlw	3
   415  079C  00F2               	movwf	??_main+2
   416  079D  308A               	movlw	138
   417  079E  00F1               	movwf	??_main+1
   418  079F  3055               	movlw	85
   419  07A0  00F0               	movwf	??_main
   420  07A1                     u127:
   421  07A1  0BF0               	decfsz	??_main,f
   422  07A2  2FA1               	goto	u127
   423  07A3  0BF1               	decfsz	??_main+1,f
   424  07A4  2FA1               	goto	u127
   425  07A5  0BF2               	decfsz	??_main+2,f
   426  07A6  2FA1               	goto	u127
   427  07A7  2FA8               	nop2
   428  07A8                     l664:
   429                           
   430                           ;main.c: 51:             if(RB3 == 0)
   431  07A8  1283               	bcf	3,5	;RP0=0, select bank0
   432  07A9  1303               	bcf	3,6	;RP1=0, select bank0
   433  07AA  1906               	btfsc	6,2	;volatile
   434  07AB  2FAD               	goto	u51
   435  07AC  2FAE               	goto	u50
   436  07AD                     u51:
   437  07AD  2FD0               	goto	l672
   438  07AE                     u50:
   439  07AE                     l666:
   440                           
   441                           ;main.c: 52:             {;main.c: 53:                 RB7 = !RB7;
   442  07AE  3003               	movlw	3
   443  07AF  00F2               	movwf	??_main+2
   444  07B0  308A               	movlw	138
   445  07B1  00F1               	movwf	??_main+1
   446  07B2  3055               	movlw	85
   447  07B3  00F0               	movwf	??_main
   448  07B4                     u137:
   449  07B4  0BF0               	decfsz	??_main,f
   450  07B5  2FB4               	goto	u137
   451  07B6  0BF1               	decfsz	??_main+1,f
   452  07B7  2FB4               	goto	u137
   453  07B8  0BF2               	decfsz	??_main+2,f
   454  07B9  2FB4               	goto	u137
   455  07BA  2FBB               	nop2
   456  07BB                     l668:
   457                           
   458                           ;main.c: 55:             }
   459  07BB  1283               	bcf	3,5	;RP0=0, select bank0
   460  07BC  1303               	bcf	3,6	;RP1=0, select bank0
   461  07BD  1906               	btfsc	6,2	;volatile
   462  07BE  2FC0               	goto	u61
   463  07BF  2FC1               	goto	u60
   464  07C0                     u61:
   465  07C0  2FD0               	goto	l672
   466  07C1                     u60:
   467  07C1                     l670:
   468                           
   469                           ;main.c: 56:         };main.c: 57:     }
   470  07C1  3040               	movlw	64
   471  07C2  0686               	xorwf	6,f
   472                           
   473                           ;main.c: 58: 
   474  07C3  3003               	movlw	3
   475  07C4  00F2               	movwf	??_main+2
   476  07C5  308A               	movlw	138
   477  07C6  00F1               	movwf	??_main+1
   478  07C7  3055               	movlw	85
   479  07C8  00F0               	movwf	??_main
   480  07C9                     u147:
   481  07C9  0BF0               	decfsz	??_main,f
   482  07CA  2FC9               	goto	u147
   483  07CB  0BF1               	decfsz	??_main+1,f
   484  07CC  2FC9               	goto	u147
   485  07CD  0BF2               	decfsz	??_main+2,f
   486  07CE  2FC9               	goto	u147
   487  07CF  2FD0               	nop2
   488  07D0                     l672:
   489  07D0  1283               	bcf	3,5	;RP0=0, select bank0
   490  07D1  1303               	bcf	3,6	;RP1=0, select bank0
   491  07D2  1986               	btfsc	6,3	;volatile
   492  07D3  2FD5               	goto	u71
   493  07D4  2FD6               	goto	u70
   494  07D5                     u71:
   495  07D5  2F58               	goto	l648
   496  07D6                     u70:
   497  07D6                     l674:
   498  07D6  3003               	movlw	3
   499  07D7  00F2               	movwf	??_main+2
   500  07D8  308A               	movlw	138
   501  07D9  00F1               	movwf	??_main+1
   502  07DA  3055               	movlw	85
   503  07DB  00F0               	movwf	??_main
   504  07DC                     u157:
   505  07DC  0BF0               	decfsz	??_main,f
   506  07DD  2FDC               	goto	u157
   507  07DE  0BF1               	decfsz	??_main+1,f
   508  07DF  2FDC               	goto	u157
   509  07E0  0BF2               	decfsz	??_main+2,f
   510  07E1  2FDC               	goto	u157
   511  07E2  2FE3               	nop2
   512  07E3                     l676:
   513  07E3  1283               	bcf	3,5	;RP0=0, select bank0
   514  07E4  1303               	bcf	3,6	;RP1=0, select bank0
   515  07E5  1986               	btfsc	6,3	;volatile
   516  07E6  2FE8               	goto	u81
   517  07E7  2FE9               	goto	u80
   518  07E8                     u81:
   519  07E8  2F58               	goto	l648
   520  07E9                     u80:
   521  07E9                     l678:
   522  07E9  3080               	movlw	128
   523  07EA  0686               	xorwf	6,f
   524  07EB  3003               	movlw	3
   525  07EC  00F2               	movwf	??_main+2
   526  07ED  308A               	movlw	138
   527  07EE  00F1               	movwf	??_main+1
   528  07EF  3055               	movlw	85
   529  07F0  00F0               	movwf	??_main
   530  07F1                     u167:
   531  07F1  0BF0               	decfsz	??_main,f
   532  07F2  2FF1               	goto	u167
   533  07F3  0BF1               	decfsz	??_main+1,f
   534  07F4  2FF1               	goto	u167
   535  07F5  0BF2               	decfsz	??_main+2,f
   536  07F6  2FF1               	goto	u167
   537  07F7  2FF8               	nop2
   538  07F8  2F58               	goto	l648
   539  07F9  120A  118A  2800   	ljmp	start
   540  07FC                     __end_of_main:
   541  007E                     btemp	set	126	;btemp
   542  007E                     wtemp0	set	126
   543                           
   544                           	psect	config
   545                           
   546                           ;Config register CONFIG1 @ 0x2007
   547                           ;	Oscillator Selection bits
   548                           ;	FOSC = HS, HS oscillator: High-speed crystal/resonator on RA6/OSC2/CLKOUT and RA7/OSC1
      +                          /CLKIN
   549                           ;	Watchdog Timer Enable bit
   550                           ;	WDTE = OFF, WDT disabled and can be enabled by SWDTEN bit of the WDTCON register
   551                           ;	Power-up Timer Enable bit
   552                           ;	PWRTE = OFF, PWRT disabled
   553                           ;	RE3/MCLR pin function select bit
   554                           ;	MCLRE = ON, RE3/MCLR pin function is MCLR
   555                           ;	Code Protection bit
   556                           ;	CP = OFF, Program memory code protection is disabled
   557                           ;	Data Code Protection bit
   558                           ;	CPD = OFF, Data memory code protection is disabled
   559                           ;	Brown Out Reset Selection bits
   560                           ;	BOREN = OFF, BOR disabled
   561                           ;	Internal External Switchover bit
   562                           ;	IESO = OFF, Internal/External Switchover mode is disabled
   563                           ;	Fail-Safe Clock Monitor Enabled bit
   564                           ;	FCMEN = OFF, Fail-Safe Clock Monitor is disabled
   565                           ;	Low Voltage Programming Enable bit
   566                           ;	LVP = OFF, RB3 pin has digital I/O, HV on MCLR must be used for programming
   567                           ;	In-Circuit Debugger Mode bit
   568                           ;	DEBUG = OFF, In-Circuit Debugger disabled, RB6/ICSPCLK and RB7/ICSPDAT are general pur
      +                          pose I/O pins
   569  2007                     	org	8199
   570  2007  20F2               	dw	8434

Data Sizes:
    Strings     0
    Constant    0
    Data        0
    BSS         0
    Persistent  0
    Stack       0

Auto Spaces:
    Space          Size  Autos    Used
    COMMON           14      3       3
    BANK0            80      0       0
    BANK1            80      0       0
    BANK3            96      0       0
    BANK2            96      0       0

Pointer List with Targets:

    None.

Critical Paths under _main in COMMON

    None.

Critical Paths under _main in BANK0

    None.

Critical Paths under _main in BANK1

    None.

Critical Paths under _main in BANK3

    None.

Critical Paths under _main in BANK2

    None.

Call Graph Tables:

 ---------------------------------------------------------------------------------
 (Depth) Function   	        Calls       Base Space   Used Autos Params    Refs
 ---------------------------------------------------------------------------------
 (0) _main                                                 3     3      0       0
                                              0 COMMON     3     3      0
 ---------------------------------------------------------------------------------
 Estimated maximum stack depth 0
 ---------------------------------------------------------------------------------

 Call Graph Graphs:

 _main (ROOT)

 Address spaces:
Name               Size   Autos  Total    Cost      Usage
BITCOMMON            E      0       0       0        0.0%
EEDATA             100      0       0       0        0.0%
NULL                 0      0       0       0        0.0%
CODE                 0      0       0       0        0.0%
COMMON               E      3       3       1       21.4%
BITSFR0              0      0       0       1        0.0%
SFR0                 0      0       0       1        0.0%
BITSFR1              0      0       0       2        0.0%
SFR1                 0      0       0       2        0.0%
STACK                0      0       0       2        0.0%
ABS                  0      0       0       3        0.0%
BITBANK0            50      0       0       4        0.0%
BITSFR3              0      0       0       4        0.0%
SFR3                 0      0       0       4        0.0%
BANK0               50      0       0       5        0.0%
BITSFR2              0      0       0       5        0.0%
SFR2                 0      0       0       5        0.0%
BITBANK1            50      0       0       6        0.0%
BANK1               50      0       0       7        0.0%
BITBANK3            60      0       0       8        0.0%
BANK3               60      0       0       9        0.0%
BITBANK2            60      0       0      10        0.0%
BANK2               60      0       0      11        0.0%
DATA                 0      0       0      12        0.0%


Microchip Technology PIC Macro Assembler V2.32 build 20210201212658 
Symbol Table                                                                                   Sun Apr 18 17:56:16 2021

                     u10 075E                       u11 075D                       u20 0771  
                     u21 0770                       u30 0786                       u31 0785  
                     u40 0799                       u41 0798                       u50 07AE  
                     u51 07AD                       u60 07C1                       u61 07C0  
                     u70 07D6                       u71 07D5                       u80 07E9  
                     u81 07E8                       u97 0764                      l640 074F  
                    l650 075E                      l642 0753                      l660 0793  
                    l652 076B                      l644 0755                      l670 07C1  
                    l662 0799                      l654 0771                      l646 0757  
                    l638 0749                      l672 07D0                      l664 07A8  
                    l656 0780                      l648 0758                      l674 07D6  
                    l666 07AE                      l658 0786                      l676 07E3  
                    l668 07BB                      l678 07E9                      _RB0 0030  
                    _RB1 0031                      _RB2 0032                      _RB3 0033  
                    _RB4 0034                      _RB5 0035                      _RB6 0036  
                    _RB7 0037                      u107 0779                      u117 078C  
                    u127 07A1                      u137 07B4                      u147 07C9  
                    u157 07DC                      u167 07F1                     _IOCB 0096  
                   _WPUB 0095                     _main 0749                     btemp 007E  
                   start 0000                    ?_main 0070                    _PORTB 0006  
                  _TRISB 0086                    status 0003                    wtemp0 007E  
        __initialization 07FC             __end_of_main 07FC                   ??_main 0070  
                 _ANSELH 0189  __end_of__initialization 07FC           __pcstackCOMMON 0070  
             __pmaintext 0749     end_of_initialization 07FC      start_initialization 07FC  
              ___latbits 0002            __size_of_main 00B3               _OPTION_REG 0081  
