:020000040000FA
:060000000A128A11E32F31
:10000C00730872047104700403190D280E2810284B
:10001C008030F3060800031083120313530D540DA4
:10002C00D5005508DB005B08031D1D281E2827285A
:10003C000030D4000030D3000030D2000030D100AA
:10004C008C285108D5005208D6005308D700540804
:10005C00D8001F300310D80CD70CD60CD50CFF3E93
:10006C00031D30285508D9005908DA00D317FF3082
:10007C00D105FF30D205FF30D3050030D4059630C2
:10008C00DB02DB1F4A284B2865285B08803A973E29
:10009C0003185128522853281E2801300310D40C61
:1000AC00D30CD20CD10CFF3E031D54280130D500CB
:1000BC005508DB07031D6328642853287C2820304F
:1000CC005B02031C6A286B2877281E280130D50098
:1000DC000310D10DD20DD30DD40DD50B6E280130DC
:1000EC00DB025B08031D7B287C286C285A0803194B
:1000FC00802881288C28D109D209D309D409D10AA6
:10010C000319D20A0319D30A0319D40A080083125B
:10011C000313850102308316031385000230831606
:10012C0003178800E13084001A0883138000840AC6
:10013C001B088000840A1C088000840A1D088000AB
:10014C00840A1E0880000A168A1100200A128A11DD
:10015C00783084008316031361088000840A6208D7
:10016C008000840A63088000840A64088000840A82
:10017C00650880000A128A156E200A128A11003056
:10018C000A168A1588240A128A1101300A168A1551
:10019C0088240A128A1101300A168A1595220A122D
:1001AC008A11710883160313EB007008EA004430BF
:1001BC0083120313C1008030C0000030BF00003038
:1001CC00BE004030A700A030A6000030A5000030D3
:1001DC00A400831603136A08F0006B08F100F20107
:1001EC00F30100300A168A1589260A128A1173083F
:1001FC0083120313AB007208AA007108A9007008DF
:10020C00A8000A128A159F240A128A11831203135A
:10021C002708C5002608C4002508C3002408C2000E
:10022C000A168A1190210A128A11831203134108AB
:10023C0083160313E9008312031340088316031378
:10024C00E800831203133F0883160313E70083129D
:10025C0003133E0883160313E6009A30831203132C
:10026C00EE006E0883160313A0006908A40068084A
:10027C00A3006708A2006608A100C3300A128A1105
:10028C008B210A128A1108300A168A1588240A1240
:10029C008A1100300A168A1588240A128A119130A4
:1002AC00F8008030F9000A168A1547230A128A11C1
:1002BC000C300A168A1588240A128A1100300A1684
:1002CC008A1588240A128A11C330F8000030F9000C
:1002DC000A168A1547230A128A119F30F8008030BB
:1002EC00F9000A168A1547230A128A114130831223
:1002FC000313EF00ED30EE00EE0B8229EF0B822999
:10030C008729D1280A128A11002883160313BB00EF
:10031C00A130A5002508AE00CC2F253042060319CC
:10032C0098299929A5294208A5003B08840025088D
:10033C00831380000130A5002508BB07CC2FAF012B
:10034C00B001200884000A168A150A200A128A11A4
:10035C002E3A031DB229B329F82930170130A50014
:10036C002508A007BC01BD01E7290A30F0000030C8
:10037C00F100831603133D08F3003C08F2000A1643
:10038C008A1549220A128A11710883160313BD00BB
:10039C007008BC00200884000A168A150A200A126C
:1003AC008A11D03EA500FF3003180030A6002508A6
:1003BC00BC070318BD0A2608BD070130A500250897
:1003CC00A007200884000A168A150A200A128A112E
:1003DC000A168A1500220A128A110318F629F7291F
:1003EC00BB29FE29BC01BD013016FE2930151A2A85
:1003FC00013083160313A007FF30200784000A1670
:10040C008A150A200A128A11C200A500A601260824
:10041C00003A0319122ACC2F2508003A0319DE2FB3
:10042C00663A0319FC29CC2F00302F05A5000730A4
:10043C003005A600250826040319252A262A872F0D
:10044C00301E292A2A2A2E2A0630BC000030BD0074
:10045C002E08840083130008BE00840A0008BF0025
:10046C00840A0008C000840A0008C1000430A500FA
:10047C002508AE074108F3004008F2003F08F100E0
:10048C003E08F0000030F7000030F6000030F500B8
:10049C000030F4000A168A15E7250A128A1103188F
:1004AC00582A592A762A831603134108F300400868
:1004BC00F2003F08F1003E08F0000A128A110620F3
:1004CC000A128A11730883160313C1007208C00044
:1004DC007108BF007008BE000330AF040030B004D8
:1004EC0083160313B501B6014108F3004008F2006E
:1004FC003F08F1003E08F0000030F7000030F60035
:10050C000030F5000030F4000A168A158D230A120B
:10051C008A110318922A932A832B03108316031330
:10052C00400D410D823EB500FF3003180030B6007F
:10053C00FF30B5070318B60AFF30B6070330F000DA
:10054C000030F1003608F3003508F2000A168A155F
:10055C0049220A128A11710883160313B600700817
:10056C00B5000A30F7000030F8003608FA003508FC
:10057C00F9000A128A1505200A128A1178088316C6
:10058C000313B6007708B500B61FCD2ACE2AD42A9D
:10059C00FF30B5070318B60AFF30B6073503FF3A2C
:1005AC000A128A1540210A128A1183120313410878
:1005BC0083160313BA008312031340088316031324
:1005CC00B900831203133F0883160313B800831278
:1005DC0003133E0883160313B70041088312031359
:1005EC00A70083160313400883120313A600831677
:1005FC0003133F0883120313A500831603133E084D
:10060C0083120313A400831603133A0883120313F3
:10061C00AB0083160313390883120313AA00831645
:10062C000313380883120313A90083160313370826
:10063C0083120313A8000A128A159F240A128A1126
:10064C0083120313270883160313BA0083120313B0
:10065C00260883160313B900831203132508831687
:10066C000313B80083120313240883160313B70073
:10067C003A08F3003908F2003808F1003708F000A6
:10068C003F30F7008030F6000030F5000030F40009
:10069C000A168A15E7250A128A110318562B572BAE
:1006AC00602BFF3083160313B5070318B60AFF300F
:1006BC00B607832B831603133A08F3003908F200AC
:1006CC003808F1003708F0004130F7002030F60010
:1006DC000030F5000030F4000A168A15E7250A12DE
:1006EC008A11031C7A2B7B2B832B0130831603136B
:1006FC00B5070318B60A0030B607831603133D0876
:10070C00803AFF0080307F02031D8E2B0D303C029F
:10071C000318912B922BD92B831603133C080A1622
:10072C008A116D230A128A11831203134108D50012
:10073C004008D4003F08D3003E08D20083160313B0
:10074C00410883120313D900831603134008831244
:10075C000313D800831603133F0883120313D70027
:10076C00831603133E0883120313D6000A168A114C
:10077C0078250A128A118312031355088316031362
:10078C00C10083120313540883160313C000831291
:10079C000313530883160313BF0083120313520869
:1007AC0083160313BE00831603133608803AFF002A
:1007BC0080307F02031DE42B0A3035020318E72B2F
:1007CC00E82B392C831603134108F3004008F20080
:1007DC003F08F1003E08F0000030F7000030F60052
:1007EC000030F5000030F4000A168A158D230A1229
:1007FC008A110318022C032CAB2C8316031341080B
:10080C0083120313D40083160313400883120313BB
:10081C00D300831603133F0883120313D2008316ED
:10082C0003133E0883120313D1000A128A111120FC
:10083C000A128A11831203135408530452045104EC
:10084C00031D292C2A2CAB2C831603133608803A53
:10085C00FF0080307F02031D352C02303502031C53
:10086C00382C392CAB2C831603133A08F3003908B7
:10087C00F2003808F1003708F0004030F7008930FA
:10088C00F6007030F5005F30F4000A168A15E72583
:10089C000A128A110318532C542C5D2CF730831632
:1008AC000313B5070318B60AFF30B607652CF830EA
:1008BC0083160313B5070318B60AFF30B6073508BD
:1008CC000A128A1540210A128A1183120313410855
:1008DC0083160313BA008312031340088316031301
:1008EC00B900831203133F0883160313B800831255
:1008FC0003133E0883160313B7004108F3004008A6
:10090C00F2003F08F1003E08F0003A08F700390801
:10091C00F6003808F5003708F4000A168A1108208A
:10092C000A128A11730883160313B4007208B300F9
:10093C007108B2007008B1000030C1000030C00076
:10094C000030BF000030BE002F2D8316031341086A
:10095C0083120313D400831603134008831203136A
:10096C00D300831603133F0883120313D20083169C
:10097C0003133E0883120313D1000A128A111120AB
:10098C000A128A1183120313540883160313B4003A
:10099C0083120313530883160313B3008312031338
:1009AC00520883160313B2008312031351088316E3
:1009BC000313B1003408F3003308F2003208F100DD
:1009CC003108F00000300A168A1589260A128A119D
:1009DC00730883120313E9007208E8007108E7003A
:1009EC007008E60083160313410883120313ED000D
:1009FC0083160313400883120313EC0083160313AE
:100A0C003F0883120313EB00831603133E08831273
:100A1C000313EA000A168A1525220A128A11831278
:100A2C000313690883160313C100831203136808A8
:100A3C0083160313C0008312031367088316031372
:100A4C00BF0083120313660883160313BE00B5019F
:100A5C00B601C201C20A4208A50001300310A50D5F
:100A6C00FF3E031D342D0310250D693E84000A162C
:100A7C008A150A200A128A11A6000A168A150A205B
:100A8C000A128A11A7000A168A150A200A128A115C
:100A9C00A8000A168A150A200A128A11A900290828
:100AAC003402031D632D28083302031D632D270810
:100ABC003202031D632D260831020318662D672DA3
:100ACC00682D722D0130A5002508C2070A30420698
:100ADC00031D712D722D312D03302F05A500003013
:100AEC003005A6002508260403197D2D7E2DF02D3A
:100AFC002D30A5003B0884002508831380000130AD
:100B0C00A5002508BB07F02D4208A50001300310F5
:100B1C00A50DFF3E031D8D2D0310250D693E840090
:100B2C000A168A150A200A128A11F0000A168A156A
:100B3C000A200A128A11F1000A168A150A200A12D2
:100B4C008A11F2000A168A150A200A128A11F30079
:100B5C003408F7003308F6003208F5003108F400C9
:100B6C000A168A15E3240A128A11730883160313D2
:100B7C00BA007208B9007108B8007008B7000030EC
:100B8C00F3000030F2000030F1000A30F0003A08B7
:100B9C00F7003908F6003808F5003708F4000A1693
:100BAC008A15DB230A128A11730883160313BA0001
:100BBC007208B9007108B8007008B7003708303EE9
:100BCC00A5003B0884002508831380000130A50094
:100BDC002508BB070130C202420A031DF62DF72D72
:100BEC008A2D0B2E303083160313A5003B0884008E
:100BFC002508831380000130A5002508BB07FF30B2
:100C0C00B5070318B60AFF30B6073608803AFF005E
:100C1C0080307F02031D142E013035020318172E6D
:100C2C00182EF82D831603133D08803AFF008030F0
:100C3C007F02031D232E09303C02031C262E272E77
:100C4C002E2E083083160313A5002508C200342E5F
:100C5C00831603133C08A5002508C2004208A50012
:100C6C00A6012508BC022608031CBD03BD024208D0
:100C7C000319412E422E4D2E2E30A5003B08840028
:100C8C002508831380000130A5002508BB07420806
:100C9C000A128A1540210A128A1183120313410881
:100CAC0083160313AD00831203134008831603133A
:100CBC00AC00831203133F0883160313AB0083129B
:100CCC0003133E0883160313AA002D088312031383
:100CDC00AB00831603132C0883120313AA0083168C
:100CEC0003132B0883120313A900831603132A087A
:100CFC0083120313A80083160313410883120313F2
:100D0C00A70083160313400883120313A60083164F
:100D1C0003133F0883120313A500831603133E0825
:100D2C0083120313A4000A128A159F240A128A1133
:100D3C00831203132708D4002608D3002508D200F9
:100D4C002408D1000A128A1111200A128A11831266
:100D5C000313540883160313B400831203135308AC
:100D6C0083160313B3008312031352088316031361
:100D7C00B20083120313510883160313B100672FBB
:100D8C004208A50001300310A50DFF3E031DC92E1E
:100D9C000310250D693E84000A168A150A200A12D2
:100DAC008A11F0000A168A150A200A128A11F1001B
:100DBC000A168A150A200A128A11F2000A168A15D6
:100DCC000A200A128A11F3003408F7003308F600DF
:100DDC003208F5003108F4000A168A15E3240A12C9
:100DEC008A11730883160313BA007208B9007108CC
:100DFC00B8007008B7000030F3000030F20000308B
:100E0C00F1000A30F0003A08F7003908F60038080B
:100E1C00F5003708F4000A168A15DB230A128A112A
:100E2C00730883160313BA007208B9007108B8006E
:100E3C007008B7003708303EA5003B088400250831
:100E4C00831380000130A5002508BB074208A500CC
:100E5C0001300310A50DFF3E031D2F2F0310250D90
:100E6C00693E84000A168A150A200A128A11F000BB
:100E7C000A168A150A200A128A11F1000A168A1516
:100E8C000A200A128A11F2000A168A150A200A127E
:100E9C008A11F3003408F7003308F6003208F50025
:100EAC003108F4000A168A15DB230A128A1173081A
:100EBC0083160313B4007208B3007108B2007008F3
:100ECC00B1000130C202420A031D6D2F6E2FC62ED7
:100EDC00802F3030A5003B08840025088313800048
:100EEC000130A5002508BB07FF30BC070318BD0A5D
:100EFC00FF30BD073C083D04031D852F862F6F2F47
:100F0C00CC2F3C083D04031D8C2F8D2F9B2F3408B8
:100F1C00330432043104031D942F952F9B2F013081
:100F2C00BC070318BD0A0030BD073D08803A803C61
:100F3C00031DA22F3C0842020318A52FA62FA72F92
:100F4C00B62F831603133D08803AA5008030250286
:100F5C00031DB22F42083C020318B52FB62FB62F33
:100F6C000330831603132F05A50000303005A600AF
:100F7C00250826040319C32FC42FCC2F2D30A50010
:100F8C003B088400250883138000A0290130A007AA
:100F9C00FF30200784000A168A150A200A128A11CB
:100FAC00A5002508C2004208031DDD2FDE2F932962
:100FBC003B08840083138001080083179F30FD00D9
:100FCC001930FE00F130FF00903084000A168A15AB
:100FDC0016220A128A11831603179F01A001A10180
:100FEC00A201A30183160313EC01ED0183010A1284
:040FFC008A118D28A1
:10100A0083120313A101F81F0B280C281328F709D0
:10101A00F809F70A0319F80AA101A10AFA1F162802
:10102A0017282028F909FA09F90A0319FA0A0130D6
:10103A00FB007B08A106A201A30177087804031923
:10104A00272828285F28A001A00A36280130031083
:10105A00F70DF80DFF3E031D2C280130FB007B081D
:10106A00A007F81F39283A282B2801300310A20DAF
:10107A00A30DFF3E031D3B2878087A02031D47286B
:10108A0077087902031C4A284B2852287708F90264
:10109A007808031CFA03FA02221401300310F80C30
:1010AA00F70CFF3E031D53280130A002031D5E28E2
:1010BA005F283A2821080319632864286928A209A5
:1010CA00A309A20A0319A30A2308F8002208F700B1
:1010DA0008009F308400780883178000840A790802
:1010EA008000840A7A088000840A7B088000840AC7
:1010FA007C0880000030831603172006031D87280A
:10110A0005301F06031D8A288B288F288316031390
:10111A008501C62800302006031D952806301F06C3
:10112A00031D982899289D28831603138601C6282B
:10113A0000302006031DA32807301F06031DA6281A
:10114A00A728AB28831603138701C6280030200678
:10115A00031DB12808301F06031DB428B528B92875
:10116A00831603138801C62800302006031DBF28F2
:10117A0009301F06031DC228C3283F2983160313FB
:10118A008901823083120313A100DD30A000A00B75
:10119A00CC28A10BCC2803300A168A1588240A12F7
:1011AA008A15213083120313A1007530A000A00B09
:1011BA00DC28A10BDC28E12803300A168A158824CA
:1011CA000A128A15683083120313A100E330A000C3
:1011DA00A00BED28A10BED28F22803300A168A1578
:1011EA0088240A128A1502300A168A1588240A12D5
:1011FA008A1502300A168A1588240A128A150830B6
:10120A000A168A1588240A128A1500300A168A15BF
:10121A0088240A128A1506300A168A1588240A12A0
:10122A008A15083083120313A0002008FD007D15DB
:10123A007D08A00004300310A00CFF3E031D2029E6
:10124A0020080F390A168A1588240A128A157D0879
:10125A000F390A168A1588240A128A1500300A16C6
:10126A008A1588240A128A1501300A168A158824D2
:10127A000A128A15080083120313D000D01F4629C8
:10128A004729F42AD009D00A5008803A123E031C92
:10129A004F295029382A0A30F7000030F800500840
:1012AA00F200F301F21BF3036430F0000030F100A6
:1012BA000A168A152F240A128A157108FA0070086C
:1012CA00F9000A128A1505200A128A15770883126C
:1012DA000313C20001300310C20DFF3E031D702923
:1012EA000310420D593E84000A168A150A200A1272
:1012FA008A15C3000A168A150A200A128A15C4001A
:10130A000A168A150A200A128A15C5000A168A15AB
:10131A000A200A128A15C6004608A7004508A60030
:10132A004408A5004308A4006430F7000030F80020
:10133A005008F900FA01F91BFA030A128A15052066
:10134A000A128A15770883120313C70001300310A3
:10135A00C70DFF3E031DAC290310470D7D3E8400D7
:10136A000A168A150A200A128A15C8000A168A1548
:10137A000A200A128A15C9000A168A150A200A12B0
:10138A008A15CA000A168A150A200A128A15CB007B
:10139A004B08AB004A08AA004908A9004808A80057
:1013AA000A128A159F240A128A1583120313270820
:1013BA00CF002608CE002508CD002408CC000A302C
:1013CA00F0000030F1005008F200F301F21BF303C1
:1013DA000A168A152F240A128A1570088312031313
:1013EA00C20001300310C20DFF3E031DF72903108E
:1013FA00420D353E84000A168A150A200A128A15F9
:10140A00C3000A168A150A200A128A15C4000A1687
:10141A008A150A200A128A15C5000A168A150A2090
:10142A000A128A15C6004608A7004508A6004408FD
:10143A00A5004308A4004F08AB004E08AA004D08B7
:10144A00A9004C08A8000A128A159F240A128A15B4
:10145A00831203132708C1002608C0002508BF000D
:10146A002408BE009E2C5008803A753E031C3E2A72
:10147A003F2AC72A0A30F0000030F1005008F20073
:10148A00F301F21BF3030A168A152F240A128A158E
:10149A00700883120313C20001300310C20DFF3E0D
:1014AA00031D522A0310420D353E84000A168A157E
:1014BA000A200A128A15C3000A168A150A200A1275
:1014CA008A15C4000A168A150A200A128A15C50046
:1014DA000A168A150A200A128A15C6004608A700A3
:1014EA004508A6004408A5004308A4000A30F700EE
:1014FA000030F8005008F900FA01F91BFA030A1241
:10150A008A1505200A128A15770883120313C70061
:10151A0001300310C70DFF3E031D8E2A0310470D2D
:10152A00593E84000A168A150A200A128A15C8002A
:10153A000A168A150A200A128A15C9000A168A1575
:10154A000A200A128A15CA000A168A150A200A12DD
:10155A008A15CB004B08AB004A08AA004908A90023
:10156A004808A8000A128A159F240A128A158312AB
:10157A0003132708C1002608C0002508BF00240855
:10158A00BE009E2C5008C20001300310C20DFF3E5F
:10159A00031DCA2A0310420D353E84000A168A1515
:1015AA000A200A128A15C3000A168A150A200A1284
:1015BA008A15C4000A168A150A200A128A15C50055
:1015CA000A168A150A200A128A15C6004608C10098
:1015DA004508C0004408BF004308BE009E2C5008BE
:1015EA00803A123E031CFA2AFB2AE32B0A30F70040
:1015FA000030F8005008F200F301F21BF3036430E4
:10160A00F0000030F1000A168A152F240A128A15F2
:10161A007108FA007008F9000A128A1505200A12E0
:10162A008A15770883120313C20001300310C20D12
:10163A00FF3E031D1B2B0310420D253E84000A1694
:10164A008A150A200A128A15C3000A168A150A2060
:10165A000A128A15C4000A168A150A200A128A155D
:10166A00C5000A168A150A200A128A15C6004608F3
:10167A00A7004508A6004408A5004308A400643052
:10168A00F7000030F8005008F900FA01F91BFA03D4
:10169A000A128A1505200A128A157708831203137B
:1016AA00C70001300310C70DFF3E031D572B03105F
:1016BA00470D493E84000A168A150A200A128A151D
:1016CA00C8000A168A150A200A128A15C9000A16BB
:1016DA008A150A200A128A15CA000A168A150A20C9
:1016EA000A128A15CB004B08AB004A08AA0049081F
:1016FA00A9004808A8000A128A159F240A128A1506
:10170A00831203132708CF002608CE002508CD0030
:10171A002408CC000A30F0000030F1005008F20032
:10172A00F301F21BF3030A168A152F240A128A15EB
:10173A00700883120313C20001300310C20DFF3E6A
:10174A00031DA22B0310420D013E84000A168A15BE
:10175A000A200A128A15C3000A168A150A200A12D2
:10176A008A15C4000A168A150A200A128A15C500A3
:10177A000A168A150A200A128A15C6004608A70000
:10178A004508A6004408A5004308A4004F08AB007A
:10179A004E08AA004D08A9004C08A8000A128A158A
:1017AA009F240A128A15831203132708C1002608E8
:1017BA00C0002508BF002408BE009E2C5008803AAD
:1017CA00753E031CE92BEA2B722C0A30F00000301C
:1017DA00F1005008F200F301F21BF3030A168A150E
:1017EA002F240A128A15700883120313C2000130CB
:1017FA000310C20DFF3E031DFD2B0310420D013ED7
:10180A0084000A168A150A200A128A15C3000A16C3
:10181A008A150A200A128A15C4000A168A150A208D
:10182A000A128A15C5000A168A150A200A128A158A
:10183A00C6004608A7004508A6004408A5004308B4
:10184A00A4000A30F7000030F8005008F900FA0145
:10185A00F91BFA030A128A1505200A128A15770853
:10186A0083120313C70001300310C70DFF3E031D87
:10187A00392C0310470D253E84000A168A150A20C2
:10188A000A128A15C8000A168A150A200A128A1527
:10189A00C9000A168A150A200A128A15CA000A16E7
:1018AA008A150A200A128A15CB004B08AB004A088F
:1018BA00AA004908A9004808A8000A128A159F2404
:1018CA000A128A15831203132708C1002608C000CA
:1018DA002508BF002408BE009E2C5008C200013013
:1018EA000310C20DFF3E031D752C0310420D013E6D
:1018FA0084000A168A150A200A128A15C3000A16D3
:10190A008A150A200A128A15C4000A168A150A209C
:10191A000A128A15C5000A168A150A200A128A1599
:10192A00C6004608C1004508C0004408BF00430875
:10193A00BE0008008312031327088039AC002C0864
:10194A00B1002708AC002C07AD002D08B700A61F70
:10195A00AF2CB02CB12C371437080319B52CB62C80
:10196A00C52C370A031DBA2CBB2CC32C0030A70088
:10197A000030A6000030A5000030A400A617CD2C28
:10198A000030A7000030A6000030A5000030A400F7
:10199A002B088039AC002C08B1062B08AC002C07A8
:1019AA00AD002D08B600AA1FDB2CDC2CDD2C36146A
:1019BA0036080319E12CE22CF12C360A031DE62C19
:1019CA00E72CEF2C0030AB000030AA000030A90051
:1019DA000030A800AA17F92C0030AB000030AA008A
:1019EA000030A9000030A80036080319FD2CFE2C8F
:1019FA00032D3708031D022D032D0C2D0030A700DF
:101A0A000030A6000030A5000030A400FF2F2408F3
:101A1A00AC002C08F0002A080A168A156E220A124F
:101A2A008A15710883120313BD007008BC003C08B4
:101A3A00AC00AD01AE01AF012F08B5002E08B4000D
:101A4A002D08B3002C08B2003D08AC00AD01AE0170
:101A5A00AF012F08BB002E08BA002D08B9002C08C8
:101A6A00B8002508AC002C08F00029080A168A15C7
:101A7A006E220A128A15710883120313BD007008B8
:101A8A00BC003C08AC00AD01AE01AF012C08B207A6
:101A9A002D0803110318013E0319542DB3072E080C
:101AAA0003110318013E03195B2DB4072F08031114
:101ABA000318013E0319622DB5073D08AC00AD01BC
:101ACA00AE01AF012C08B8072D0803110318013E17
:101ADA000319702DB9072E0803110318013E0319C3
:101AEA00772DBA072F0803110318013E03197E2D1B
:101AFA00BB072608AC002C08F00028080A168A152D
:101B0A006E220A128A15710883120313BD00700827
:101B1A00BC003C08AC00AD01AE01AF012C08B20715
:101B2A002D0803110318013E03199C2DB3072E0833
:101B3A0003110318013E0319A32DB4072F0803113B
:101B4A000318013E0319AA2DB5073D08AC00AD01E3
:101B5A00AE01AF012C08B8072D0803110318013E86
:101B6A000319B82DB9072E0803110318013E0319EA
:101B7A00BF2DBA072F0803110318013E0319C62DFA
:101B8A00BB070830AC000310B20DB30DB40DB50D90
:101B9A00AC0BC82D2508AC002C08F00028080A1642
:101BAA008A156E220A128A15710883120313BD0060
:101BBA007008BC003C08AC003D08AD00AE01AF01A6
:101BCA002C08B2072D0803110318013E0319EE2D44
:101BDA00B3072E0803110318013E0319F52DB407A4
:101BEA002F0803110318013E0319FC2DB507240819
:101BFA00AC002C08F00029080A168A156E220A126F
:101C0A008A15710883120313BD007008BC003C08D2
:101C1A00AC003D08AD00AE01AF012C08B2072D089B
:101C2A0003110318013E03191B2EB3072E080311D3
:101C3A000318013E0319222EB4072F0803110318B3
:101C4A00013E0319292EB5070830AC000310B20D66
:101C5A00B30DB40DB50DAC0B2B2E2408AC002C081B
:101C6A00F00028080A168A156E220A128A157108C7
:101C7A0083120313BD007008BC003C08AC003D0889
:101C8A00AD00AE01AF012C08B2072D0803110318ED
:101C9A00013E0319512EB3072E0803110318013E02
:101CAA000319582EB4072F0803110318013E03190C
:101CBA005F2EB5072508AC002C08F0002A080A1682
:101CCA008A156E220A128A15710883120313BD003F
:101CDA007008BC003C08AC003D08AD00AE01AF0185
:101CEA002C08B8072D0803110318013E03197E2E8C
:101CFA00B9072E0803110318013E0319852EBA07E6
:101D0A002F0803110318013E03198C2EBB0726085E
:101D1A00AC002C08F00029080A168A156E220A124D
:101D2A008A15710883120313BD007008BC003C08B1
:101D3A00AC003D08AD00AE01AF012C08B8072D0874
:101D4A0003110318013E0319AB2EB9072E0803111C
:101D5A000318013E0319B22EBA072F0803110318FC
:101D6A00013E0319B92EBB072608AC002C08F00067
:101D7A002A080A168A156E220A128A15710883120F
:101D8A000313BD007008BC003C08AC003D08AD0060
:101D9A00AE01AF0108300310AC0DAD0DAE0DAF0DA5
:101DAA00FF3E031DD02E2C08B8072D080311031877
:101DBA00013E0319E12EB9072E0803110318013E4B
:101DCA000319E82EBA072F0803110318013E031955
:101DDA00EF2EBB073208AC003308AD003408AE0062
:101DEA003508AF0018300310AF0CAE0CAD0CAC0CBC
:101DFA00FF3E031DF82E2C08B8072D0803110318FF
:101E0A00013E0319092FB9072E0803110318013ED1
:101E1A000319102FBA072F0803110318013E0319DB
:101E2A00172FBB070830AC000310B20DB30DB40D69
:101E3A00B50DAC0B192F37083607AC00AD01AD0D47
:101E4A002C08823EBC002D080318013EFF3EBD004F
:101E5A004B2F0130AC000310B80DB90DBA0DBB0DF4
:101E6A00AC0B302FB51F3A2F3B2F3C2F38140130C3
:101E7A00AC000310B20DB30DB40DB50DAC0B3E2F73
:101E8A00FF30BC070318BD0AFF30BD07BA1F4E2F2B
:101E9A004F2F2E2FB601B51F532F542F702FFF30FF
:101EAA003205AC00FF303305AD00FF303405AE001B
:101EBA007F303505AF002F082E042D042C0403199A
:101ECA00672F682F6B2FB601B60A702F381C6E2F3A
:101EDA006F2F702F682F36080319742F752FA62FAE
:101EEA000130B807003003180130B9070030031871
:101EFA000130BA07003003180130BB073B1C862F9C
:101F0A00872FA62F3808AC003908AD003A08AE0072
:101F1A003B08AF000130B0002F0DAF0CAE0CAD0C7A
:101F2A00AC0CB00B912F2F08BB002E08BA002D085D
:101F3A00B9002C08B8000130BC070318BD0A0030EC
:101F4A00BD073D08803AFF0080307F02031DAF2F96
:101F5A00FF303C02031CB22FB32FBE2F7F308312F7
:101F6A000313BB008030BA000030B9000030B8005B
:101F7A00F32F831203133D08803AFF0080307F025B
:101F8A00031DC92F01303C020318CC2FCD2FD92FA6
:101F9A00003083120313BB000030BA000030B900CE
:101FAA000030B800B101F32F831203133C08AC00D0
:101FBA002C08B700FF30B805FF30B9057F30BA05E5
:101FCA000030BB05371CEA2FEB2FEC2FBA17370866
:101FDA00AC0003102C0CAD002D08BB003108AC007E
:101FEA002C08BB043B08A7003A08A6003908A5003C
:101FFA003808A40008008130831203139F00831657
:10200A0003139F0108000310720D730DF80078087E
:10201A0083120313A5002508031D142815281E285A
:10202A000030F3000030F2000030F1000030F00020
:10203A00C5280310760D770DF8007808A400240847
:10204A00031D282829282A281528F217FF30F00509
:10205A00FF30F105FF30F2050030F305F617FF30C7
:10206A00F405FF30F505FF30F6050030F7050030BE
:10207A00A3000030A2000030A1000030A0007F3091
:10208A00A502A0302407F8007808A5022030F8003D
:10209A007808A4000130F8000310A00DA10DA20DCC
:1020AA00A30DF80B512877087302031D66287608DA
:1020BA007202031D662875087102031D66287408DA
:1020CA007002031C69286A2879287408F0027508C6
:1020DA00031C750FF1027608031C760FF2027708CB
:1020EA00031C770FF30220140130F8000310F00DDF
:1020FA00F10DF20DF30DF80B7B280130A402031D3C
:10210A00872888284F28A51F8B288C28A6282508C9
:10211A00803A9F3E03189228932894281528013064
:10212A000310A30CA20CA10CA00CFF3E031D9528C2
:10213A000130F8007808A507031DA428A5289428CB
:10214A00BD2820302502031CAB28AC28B828152846
:10215A000130F8000310A00DA10DA20DA30DF80B7C
:10216A00AF280130A5022508031DBC28BD28AD28CB
:10217A002308F3002208F2002108F1002008F000E9
:10218A000800F300731CCA28CB28E2280130F000AB
:10219A008316031722080739013ED5280310F00DCC
:1021AA00FF3E031DD3287008F1001F08840083171F
:1021BA00201C831371088004F9280130F00083166B
:1021CA00031722080739013EEC280310F00DFF3EE1
:1021DA00031DEA287008FF3AF1001F0884008317DC
:1021EA00201C831371088005F31CFC28FD2815297F
:1021FA000130F000220CF100F10C710C0739013E9C
:10220A0008290310F00DFF3E031D06297008F2008D
:10221A001F0884008317201C8313720880042D2949
:10222A000130F000220CF100F10C710C0739013E6B
:10223A0020290310F00DFF3E031D1E297008FF3AE6
:10224A00F2001F0884008317201C8313720880057C
:10225A00731D3029312946290130F0002308073936
:10226A00013E39290310F00DFF3E031D372970087E
:10227A00F1001F0884008317201C8313710880044F
:10228A005B290130F00023080739013E4E2903106B
:10229A00F00DFF3E031D4C297008FF3AF1001F089C
:1022AA0084008317201C831371088005F31D5E299F
:1022BA005F2977290130F000230CF100F10C710C31
:1022CA000739013E6A290310F00DFF3E031D6829F4
:1022DA007008F2001F0884008317201C83137208F9
:1022EA0080048F290130F000230CF100F10C710CED
:1022FA000739013E82290310F00DFF3E031D802994
:10230A007008FF3AF2001F0884008317201C831309
:10231A007208800508008312031345088039C60035
:10232A004608CF004508C6004607C7004708D6003A
:10233A00C41FA029A129A229561456080319A6299F
:10234A00A729B729560A031DAB29AC29B42900309D
:10235A00C5000030C4000030C3000030C200C417FA
:10236A00C501BF290030C5000030C4000030C300D9
:10237A000030C20041088039C6004608CF0641082D
:10238A00C6004607C7004708D700C01FCD29CE2977
:10239A00CF29571457080319D329D429E429570AEE
:1023AA00031DD829D929E1290030C1000030C00015
:1023BA000030BF000030BE00C017C101EC29003058
:1023CA00C1000030C0000030BF000030BE0041082C
:1023DA0040043F043E04031DF329F4290D2A00306A
:1023EA00C5000030C4000030C3000030C200803095
:1023FA00C4047F30C5044F08C6004608C504450812
:10240A00C1004408C0004308BF004208BE006C2B4C
:10241A005608031D112A122A1B2A0030C100003057
:10242A00C0000030BF000030BE006C2B5608C6004A
:10243A00C7014708C90057084602C800031CC90358
:10244A0048087F3ED00049080318013E003ED100EB
:10245A004508CE004408CD004308CC004208CB0012
:10246A000030C5000030C4000030C3000030C20094
:10247A000030D5000030D4000030D3000030D20044
:10248A00D701912A570803194B2A4C2A6C2A013082
:10249A00C6000310CB0DCC0DCD0DCE0DC60B4E2AAA
:1024AA000130C6000310C20DC30DC40DC50DC60B05
:1024BA00572AD51F612A622A632A42140130C600AC
:1024CA000310D20DD30DD40DD50DC60B652A4108C4
:1024DA004E02031D7A2A40084D02031D7A2A3F083C
:1024EA004C02031D7A2A3E084B02031C7D2A7E2ACF
:1024FA008D2A55173E08CB023F08031C3F0FCC021A
:10250A004008031C400FCD024108031C410FCE02B4
:10251A000130C6004608D7071A305702031C962A0C
:10252A00972A472A4E084D044C044B0403199E2A45
:10253A009F2ABE2A5214BE2A0130C6000310C20DB9
:10254A00C30DC40DC50DC60BA32AD51FAD2AAE2ACD
:10255A00AF2A42140130C6000310D20DD30DD40D98
:10256A00D50DC60BB12AFF30D0070318D10AFF30A8
:10257A00D107C41FC12AC22AA12AD701D51FC62A38
:10258A00C72AE32AFF305205C600FF305305C700A9
:10259A00FF305405C8007F305505C9004908480472
:1025AA00470446040319DA2ADB2ADE2AD701D70AA6
:1025BA00E32A421CE12AE22AE32ADB2A5708031902
:1025CA00E72AE82A192B0130C20700300318013024
:1025DA00C307003003180130C40700300318013064
:1025EA00C507451CF92AFA2A192B4208C6004308CE
:1025FA00C7004408C8004508C9000130CA00490D8F
:10260A00C90CC80CC70CC60CCA0B042B4908C50058
:10261A004808C4004708C3004608C2000130D00772
:10262A000318D10A0030D1075108803AFF008030E0
:10263A007F02031D222BFF305002031C252B262B61
:10264A00342BFF3083120313D0000030D100003046
:10265A00C5000030C4000030C3000030C20083123D
:10266A0003135108803AFF0080307F02031D3F2B7D
:10267A00013050020318422B432B502B83120313B1
:10268A00D001D1010030C5000030C4000030C300C1
:10269A000030C200CF01831203135008C600460857
:1026AA00D600561C592B5A2B5C2BC417602B7F3033
:1026BA00C6004608C4055608C6000310460CC700E3
:1026CA004708C5004F08C6004608C504042A080082
:1026DA0083120313D1006E305102031C752B762B23
:1026EA00832C3F30A7000030A6000030A500003040
:1026FA00A4006430F6000030F7005108C200C3019C
:10270A004208F8004308F9000A168A1503230A1634
:10271A008A11760883120313C40001300310C40D12
:10272A00FF3E031D932B0310440D7D3E84000A16C1
:10273A008A150A200A168A11C5000A168A150A205D
:10274A000A168A11C6000A168A150A200A168A115A
:10275A00C7000A168A150A200A168A11C8004808EC
:10276A00AB004708AA004608A9004508A8000A12B3
:10277A008A159F240A168A11831203132708D00088
:10278A002608CF002508CE002408CD000A30F6001E
:10279A000030F7005108C200C3014208F2004308A2
:1027AA00F3006430F0000030F1000A168A15C922DD
:1027BA000A168A117108F9007008F8000A168A15B3
:1027CA0003230A168A11760883120313C400013000
:1027DA000310C40DFF3E031DED2B0310440D593E9B
:1027EA0084000A168A150A200A168A11C5000A16D2
:1027FA008A150A200A168A11C6000A168A150A209C
:10280A000A168A11C7000A168A150A200A168A1198
:10281A00C8004808A7004708A6004608A5004508BA
:10282A00A4005008AB004F08AA004E08A9004D08A2
:10283A00A8000A128A159F240A168A118312031302
:10284A002708CC002608CB002508CA002408C9009E
:10285A000A30F0000030F1005108C200C3014208FA
:10286A00F2004308F3000A168A15C9220A168A11C9
:10287A00700883120313C40001300310C40DFF3E15
:10288A00031D422C0310440D353E84000A168A1596
:10289A000A200A168A11C5000A168A150A200A167B
:1028AA008A11C6000A168A150A200A168A11C70052
:1028BA000A168A150A200A168A11C8004808A700AB
:1028CA004708A6004608A5004508A4004C08AB0026
:1028DA004B08AA004A08A9004908A8000A128A1542
:1028EA009F240A168A11831203132708C100260897
:1028FA00C0002508BF002408BE00772D0B30510206
:10290A00031C882C892C342D3F30A7000030A600E8
:10291A000030A5000030A4000A30F6000030F700AD
:10292A005108C200C3014208F8004308F9000A1618
:10293A008A1503230A168A11760883120313C40020
:10294A0001300310C40DFF3E031DA62C0310440DD5
:10295A00593E84000A168A150A200A168A11C500E9
:10296A000A168A150A200A168A11C6000A168A1534
:10297A000A200A168A11C7000A168A150A200A1698
:10298A008A11C8004808AB004708AA004608A900EF
:10299A004508A8000A128A159F240A168A1183126A
:1029AA0003132708D0002608CF002508CE002408E4
:1029BA00CD000A30F0000030F1005108C200C30116
:1029CA004208F2004308F3000A168A15C9220A16B9
:1029DA008A11700883120313C40001300310C40D56
:1029EA00FF3E031DF32C0310440D353E84000A16E6
:1029FA008A150A200A168A11C5000A168A150A209B
:102A0A000A168A11C6000A168A150A200A168A1197
:102A1A00C7000A168A150A200A168A11C800480829
:102A2A00A7004708A6004608A5004508A4005008C4
:102A3A00AB004F08AA004E08A9004D08A8000A12C8
:102A4A008A159F240A168A11831203132708C100C4
:102A5A002608C0002508BF002408BE00772D3F3095
:102A6A00A7000030A6000030A5000030A4005108DD
:102A7A00C20001300310C20DFF3E031D3F2D03109B
:102A8A00420D353E84000A168A150A200A168A1152
:102A9A00C3000A168A150A200A168A11C4000A16E1
:102AAA008A150A200A168A11C5000A168A150A20EA
:102ABA000A168A11C6004608AB004508AA0044084F
:102ACA00A9004308A8000A128A159F240A168A1127
:102ADA00831203132708C1002608C0002508BF0077
:102AEA002408BE0008008312031355088039DA004F
:102AFA005A08E2005508DA005A07DB005B08E400CE
:102B0A00D41F882D892D8A2D6414640803198E2DEB
:102B1A008F2D9F2D640A031D932D942D9C2D00301B
:102B2A00D5000030D4000030D3000030D200D417D2
:102B3A00D501A72D0030D5000030D4000030D300D5
:102B4A000030D20059088039DA005A08E3006308D5
:102B5A0062060319B12DB22DB32D62175908DA0096
:102B6A005A07DB005B08E300D81FBC2DBD2DBE2D24
:102B7A00631463080319C22DC32DD32D630A031DE1
:102B8A00C72DC82DD02D0030D9000030D800003014
:102B9A00D7000030D600D817D901DB2D0030D90074
:102BAA000030D8000030D7000030D6006408630235
:102BBA000318E02DE12D252E621FE42DE52DE92DC8
:102BCA008030DA005A08E2066408DA005A08E5009A
:102BDA006308DA005A08E4006508DA005A08E300D4
:102BEA005208DA005A08E5005608DA005A08D200F4
:102BFA006508DA005A08D6005308DA005A08E500D0
:102C0A005708DA005A08D3006508DA005A08D700CC
:102C1A005408DA005A08E5005808DA005A08D400BD
:102C2A006508DA005A08D8005508DA005A08E5009B
:102C3A005908DA005A08D5006508DA005A08D90096
:102C4A00E5016308DA00DB015B08DD0064085A026B
:102C5A00DC00031CDD035D08803AFF0080307F0240
:102C6A00031D392E1A305C02031C3C2E3D2E7A2E8F
:102C7A00831203135508540453045204031D462EA9
:102C8A00482E0130492E0030DA005A08E50000309B
:102C9A00D5000030D4000030D3000030D2006308E1
:102CAA00DA005A08E400822E651C5C2E5D2E662E20
:102CBA006508DA0003105A0C0138DB005B08E500EE
:102CCA00682E0310E50C521C6B2E6C2E6D2EE51728
:102CDA000130DA00550DD50CD40CD30CD20CDA0B1A
:102CEA006F2E0130DA005A08E407831203136308CF
:102CFA006402031C812E822E592E621B852E862E7B
:102D0A00D12E6408031D8A2E8B2E942E0030D500F6
:102D1A000030D4000030D3000030D200FF2F560814
:102D2A00D207570803110318013E03199D2ED30732
:102D3A00580803110318013E0319A42ED407590891
:102D4A0003110318013E0319AB2ED507551CAE2EED
:102D5A00AF2E852F651CB22EB32EBC2E6508DA0065
:102D6A0003105A0C0138DB005B08E500BE2E031085
:102D7A00E50C521CC12EC22EC32EE5170130DA0013
:102D8A00550DD50CD40CD30CD20CDA0BC52E013050
:102D9A00DA005A08E407852F5508803AFF005908D7
:102DAA00803A7F02031DE32E58085402031DE32EC6
:102DBA0057085302031DE32E560852020318E62E43
:102DCA00E72E3F2FFF30DA00FF30DB00FF30DC0058
:102DDA00FF30DD005608DE005708DF005808E00023
:102DEA005908E1005208DE025308031C530FFE2E55
:102DFA00FF2EDF025408031C540F042F052FE00294
:102E0A005508031C550F0A2F0B2FE1025E08DA073B
:102E1A005F0803185F0F122F132FDB0760080318D0
:102E2A00600F182F192FDC0761080318610ADD07E4
:102E3A005D08D5005C08D4005B08D3005A08D200AC
:102E4A008030DA005A08E206E509E50A6508031D3A
:102E5A002F2F302F4D2F0130D207003003180130A9
:102E6A00D307003003180130D407003003180130AB
:102E7A00D5074D2F5608D2025708031C570FD30205
:102E8A005808031C580FD4025908031C590FD502BD
:102E9A005508540453045204031D542F552F812FEF
:102EAA006508031D592F5A2F812F0030D500003095
:102EBA00D4000030D3000030D200FF2F0130DA00F6
:102ECA000310D20DD30DD40DD50DDA0B652FE51FE6
:102EDA006F2F702F712F5214651C742F752F782F36
:102EEA000314E50D7A2F0310E50D640803197E2FEC
:102EFA007F2F812F0130E402D41F842F852F632F67
:102F0A00E301E51F892F8A2F982F65087F39031956
:102F1A008F2F902F932FE301E30A982F521C962F9D
:102F2A00972F982F902F630803199C2F9D2FD12F2D
:102F3A000130D207003003180130D30700300318DC
:102F4A000130D407003003180130D507551CAE2FC5
:102F5A00AF2FD12F5208DA005308DB005408DC00E7
:102F6A005508DD000130DE005D0DDD0CDC0CDB0CEC
:102F7A00DA0CDE0BB92F5D08D5005C08D4005B08BB
:102F8A00D3005A08D200640A0319CC2FCD2FD12FAF
:102F9A000130DA005A08E407640A0319D52FD62F3C
:102FAA00DB2F6408031DDA2FDB2FE92F0030D50051
:102FBA000030D4000030D3000030D2006408031D72
:102FCA00E72FE82FE92FE201641CEC2FED2FEF2FFA
:102FDA00D417F32F7F30DA005A08D4056408DA00D0
:102FEA0003105A0CDB005B08D500E21FFD2FFE2FF1
:102FFA00FF2FD5170800FF1B0A2883137F18831792
:10300A000008840A0319FF0A080018308A00040815
:10301A00840A820700340034003480343F34003498
:10302A0000342034413400340034C834423400348B
:10303A0000347A344434003440341C344634003486
:10304A005034C3344734003424347434493480341B
:10305A00963418344B342034BC34BE344C342834BF
:10306A006B346E344E34F934023415345034EC3443
:10307A007834AD346034CA34F234493471340034AB
:10308A00003480343F34CD34CC34CC343D340A342B
:10309A00D73423343C346F34123483343A341734FB
:1030AA00B734D1343834AC34C53427343734BD342A
:1030BA003734863435349534BF34D63433347734A0
:1030CA00CC342B3432345F34703489343034FF34A6
:1030DA00E634DB342E340834E5343C341E346034B0
:1030EA004234A2340D3401340034003400340A343A
:1030FA000034003400346434003400340034E834DA
:10310A000334003400341034273400340034A0343B
:10311A00863401340034403442340F34003480346D
:10312A009634983400340034E134F53405340034EC
:10313A00CA349A343B3456346F346C347434613440
:10314A006A3465343A34003425342E3434346634DF
:0A315A0000342034563420340034D1
:1033E20020344D346934633472346F34733420348E
:1033F20031342034083400341A342C343E34F10091
:10340200F0013A3071020318072A082A102A3030D4
:103412007102031C0D2A0E2A102AF001F00A700C08
:1034220008007E088A007F0882000A168A15122286
:103432000A168A158000840A04087D0603190034DE
:10344200FF0A0319FE0A162A803083120313E906C3
:103452006D08D5006C08D4006B08D3006A08D2004E
:103462006908D9006808D8006708D7006608D6003E
:103472000A168A1178250A168A158312031355082B
:10348200E9005408E8005308E7005208E600080083
:10349200F401F501701C4E2A4F2A552A7208F407CE
:1034A2000318F50A7308F50701300310F20DF30D46
:1034B200FF3E031D562A01300310F10CF00CFF3EB3
:1034C200031D5D2A70087104031D682A692A4B2AAC
:1034D2007508F1007408F0000800F800F401F50125
:1034E2007008F200F3017208F6007308F700781C06
:1034F2007B2A7C2A822A7608F4070318F50A7708C1
:10350200F50701300310F60DF70DFF3E031D832A68
:103512000310F80C7808031D8F2A902A782A750860
:10352200F1007408F0000800F4000E307402031C6D
:103532009B2A9C2A9F2AF001F101C82AC530F20079
:103542007208831203139F057408F20001300310FE
:10355200F20DFF3E031DA82A0310720DF30073083B
:103562009F040D30F300FB30F200F20BB62AF30B8E
:10357200B62ABB2A831203139F149F18C12AC22A98
:10358200BE2A1E08F100831603131E08F00008006D
:10359200700871040319CE2ACF2AFE2AF501F50A12
:1035A200DD2A01300310F00DF10DFF3E031DD32A79
:1035B2000130F4007408F507F11FE02AE12AD22A4B
:1035C20071087302031DE72A70087202031CEA2ABB
:1035D200EB2AF12A7008F2027108031CF303F302CA
:1035E20001300310F10CF00CFF3E031DF22A0130F2
:1035F200F502031DFD2AFE2AE12A7308F100720872
:10360200F0000800FB01FC017608770403190A2B7D
:103612000B2B422BFD01FD0A192B01300310F60D75
:10362200F70DFF3E031D0F2B0130FA007A08FD074C
:10363200F71F1C2B1D2B0E2B01300310FB0DFC0D55
:10364200FF3E031D1E2B77087902031D2A2B7608E5
:103652007802031C2D2B2E2B352B7608F8027708C7
:10366200031CF903F9027B1401300310F70CF60C6A
:10367200FF3E031D362B0130FD02031D412B422B61
:103682001D2B7C08F7007B08F60008008312031349
:10369200A001A101702B20087807FB007908FA002D
:1036A2000318FA0AA01F562BFA037A08FC007C08BA
:1036B20083120313FF007B0884000A168A15002078
:1036C2000A168A150A168A1549250A168A1501301C
:1036D20083120313A0070318A10A0030A1072008D0
:1036E2007807FB007908FA000318FA0AA01F7A2B60
:1036F200FA037A08FC007C0883120313FF007B089C
:1037020084000A168A1500200A168A15003A031D3B
:103712008B2B8C2B4C2B080000307005F8000030EE
:103722007105F90080307205FA007F307305FB00E5
:103732007B087A0479047804031DA02BA12BA92B02
:103742000030F3000030F2000030F1000030F000F1
:1037520000307405F80000307505F90080307605F8
:10376200FA007F307705FB007B087A04790478043D
:10377200031DBC2BBD2BC52B0030F7000030F6001B
:103782000030F5000030F40077087306031DD32BD8
:1037920076087206031DD32B75087106031DD32B01
:1037A200740870060319D62BD72BD92B0310DA2BEA
:1037B2000314080073087204710470040319E22BE5
:1037C200E32B262CF901F90AF32B0130F800031040
:1037D200F00DF10DF20DF30DF80BE82B0130F800AE
:1037E2007808F907F31FF62BF72BE62B73087702FD
:1037F200031D052C72087602031D052C7108750243
:10380200031D052C70087402031C082C092C172CAC
:103812007008F4027108031C710FF5027208031C90
:10382200720FF6027308031C730FF70201300310C4
:10383200F30CF20CF10CF00CFF3E031D182C0130BE
:10384200F902031D252C262CF72B7708F3007608A6
:10385200F2007508F1007408F0000800F601F31F89
:10386200332C342C3B2CF209F309F20A0319F30A24
:10387200F601F60AF11F3E2C3F2C442CF009F10907
:10388200F00A0319F10A700871040319492C4A2C31
:10389200792CF501F50A582C01300310F00DF10DC9
:1038A200FF3E031D4E2C0130F4007408F507F11F92
:1038B2005B2C5C2C4D2C71087302031D622C70086A
:1038C2007202031C652C662C6C2C7008F2027108C3
:1038D200031CF303F30201300310F10CF00CFF3E62
:1038E200031D6D2C0130F502031D782C792C5C2C04
:1038F200760803197D2C7E2C832CF209F309F20A37
:103902000319F30A7308F1007208F0000800F700C7
:103912000130F4008316031721080739013E932C66
:103922000310F40DFF3E031D912C7408FF3AF500BD
:103932001F0884008317201C8313750880057708ED
:103942000A168A11C6200A168A150130F400831657
:103952000317210CF500F50C750C0739013EB32C49
:103962000310F40DFF3E031DB12C7408F6001F086E
:1039720084008317201C8313760880041A30F50014
:10398200F830F400F40BC32CF50BC32C000001300B
:10399200F40083160317210CF500F50C750C07399A
:1039A200013ED52C0310F40DFF3E031DD32C7408E9
:1039B200FF3AF6001F0884008317201C8313760841
:1039C200800508000030FC000030FB000030FA00E7
:1039D2000030F90073087204710470040319F22CA8
:1039E200F32C402DFD01FD0A032D0130F8000310D8
:1039F200F00DF10DF20DF30DF80BF82C0130F8007B
:103A02007808FD07F31F062D072DF62C0130F8006C
:103A12000310F90DFA0DFB0DFC0DF80B092D7308BF
:103A22007702031D1E2D72087602031D1E2D7108DA
:103A32007502031D1E2D70087402031C212D222DF8
:103A4200312D7008F4027108031C710FF50272081F
:103A5200031C720FF6027308031C730FF70279142A
:103A620001300310F30CF20CF10CF00CFF3E031DBD
:103A7200322D0130FD02031D3F2D402D072D7C0804
:103A8200F3007B08F2007A08F1007908F0000800E0
:103A9200F7000130F4008316031721080739013EAD
:103AA200542D0310F40DFF3E031D522D7408F50032
:103AB2001F0884008317201C83137508800477086D
:103AC200F40004300310F40CFF3E031D632D740850
:103AD2000F390A168A11C6200A168A150130F40017
:103AE20083160317210CF500F50C750C0739013EFE
:103AF2007C2D0310F40DFF3E031D7A2D7408F60091
:103B02001F0884008317201C831376088004423028
:103B1200F400F40B8A2D00000130F4008316031721
:103B2200210CF500F50C750C0739013E9A2D031096
:103B3200F40DFF3E031D982D7408FF3AF6001F088E
:103B420084008317201C83137608800577080F39B9
:103B52000A168A11C6200A168A150130F400831645
:103B62000317210CF500F50C750C0739013EBB2D2E
:103B72000310F40DFF3E031DB92D7408F6001F0853
:103B820084008317201C8313760880044230F400DB
:103B9200F40BC92D00000130F40083160317210C29
:103BA200F500F50C750C0739013ED92D0310F40D03
:103BB200FF3E031DD72D7408FF3AF6001F0884004C
:103BC2008317201C831376088005080000307005D7
:103BD200F80000307105F90080307205FA007F307C
:103BE2007305FB007B087A0479047804031DFA2D1F
:103BF200FB2D032E0030F3000030F2000030F10004
:103C02000030F00000307405F80000307505F9004E
:103C120080307605FA007F307705FB007B087A0456
:103C220079047804031D162E172E1F2E0030F7007C
:103C32000030F6000030F5000030F400F31F222EB1
:103C4200232E472E0030F8000030F9000030FA0031
:103C52008030FB007008F8027108031C710F322ECD
:103C6200332EF9027208031C720F382E392EFA0213
:103C72007308031C730F3E2E3F2EFB027B08F300DA
:103C82007A08F2007908F1007808F000F71F4A2E4E
:103C92004B2E6F2E0030F8000030F9000030FA0091
:103CA2008030FB007408F8027508031C750F5A2E49
:103CB2005B2EF9027608031C760F602E612EFA0243
:103CC2007708031C770F662E672EFB027B08F7002E
:103CD2007A08F6007908F5007808F4008030F306D7
:103CE2008030F70677087302031D812E7608720270
:103CF200031D812E75087102031D812E7408700246
:103D02000318842E852E872E0310882E0314080094
:103D1200F800780803198E2E8F2EA32EF31F922EF1
:103D2200932EA32E7009FA007109FB007209FC00A0
:103D32007309FD00FA0A0319FB0A0319FC0A0319A5
:103D4200FD0AAB2E7308FD007208FC007108FB002F
:103D52007008FA007308720471047004031DB22E15
:103D6200B32EBC2E0030F3000030F2000030F10020
:103D72000030F000422F9630F4007408F900CE2E85
:103D82000130F4007408F90701300310FD0CFC0C3B
:103D9200FB0CFA0CFF3E031DC62EFE307D05031DF3
:103DA200D32ED42EC12EF02E0130F4007408F90760
:103DB2000130FA07003003180130FB070030031806
:103DC2000130FC07003003180130FD0701300310F9
:103DD200FD0CFC0CFB0CFA0CFF3E031DE82EFF3021
:103DE2007D05031DF52EF62ED52E022F0130F90288
:103DF2000130F4000310FA0DFB0DFC0DFD0DF40B68
:103E0200FB2EFC1B052F062F0C2F02307902031804
:103E12000B2F0C2FF72E79180F2F102F182FFF3082
:103E2200FA05FF30FB057F30FC05FF30FD0503106E
:103E3200F90C7908F400F501F601F70118300310C6
:103E4200F40DF50DF60DF70DFF3E031D202F74083E
:103E5200FA047508FB047608FC047708FD04780868
:103E62000319342F352F3A2FF31F382F392F3A2FBA
:103E7200FD177D08F3007C08F2007B08F1007A0848
:103E8200F00008007008F8007108F9007208FA00E2
:103E92000310790D7A0DFB007B0883120313A50032
:103EA2002508031D552F562F5F2F0030F3000030D9
:103EB200F2000030F1000030F000FF2F7408F8002B
:103EC2007508F9007608FA000310790D7A0DFB00E7
:103ED2007B08A4002408031D6F2F702F712F562F0B
:103EE200F117FF30F005FF30F1050030F205F5174C
:103EF200FF30F405FF30F5050030F6050030A30071
:103F02000030A2000030A1000030A0007F30A502E6
:103F120098302407F8007808A5021830F8007808CD
:103F2200A4000130F8000310A00DA10DA20DA30DF5
:103F3200F80B942F76087202031DA52F75087102E3
:103F4200031DA52F74087002031CA82FA92FB42FDC
:103F52007408F0027508031C750FF1027608031C41
:103F6200760AF202201401300310F00DF10DF20D69
:103F7200FF3E031DB52F0130A402031DC12FC22F26
:103F8200922FA51FC52FC62FE02F2508803A973EF6
:103F92000318CC2FCD2FCE2F562F01300310A30C98
:103FA200A20CA10CA00CFF3E031DCF2F0130F80084
:103FB2007808A507031DDE2FDF2FCE2FF72F18302D
:103FC2002502031CE52FE62FF22F562F0130F800B1
:103FD2000310A00DA10DA20DA30DF80BE92F0130C6
:103FE200A5022508031DF62FF72FE72F2308F3005C
:0E3FF2002208F2002108F1002008F00008006B
:02400E00F2209E
:00000001FF
