

Microchip MPLAB XC8 Assembler V2.32 build 20210201212658 
                                                                                               Mon Apr 12 13:21:45 2021

Microchip MPLAB XC8 C Compiler v2.32 (Free license) build 20210201212658 Og1 
     1                           	processor	16F887
     2                           	pagewidth 120
     3                           	opt	flic
     4                           	psect	idataBANK0,global,class=CODE,delta=2,noexec
     5                           	psect	strings,global,class=STRING,delta=2,noexec
     6                           	psect	cinit,global,class=CODE,merge=1,delta=2
     7                           	psect	bssBANK0,global,class=BANK0,space=1,delta=1,noexec
     8                           	psect	dataBANK0,global,class=BANK0,space=1,delta=1,noexec
     9                           	psect	inittext,global,class=CODE,delta=2
    10                           	psect	cstackCOMMON,global,class=COMMON,space=1,delta=1,noexec
    11                           	psect	cstackBANK0,global,class=BANK0,space=1,delta=1,noexec
    12                           	psect	maintext,global,class=CODE,split=1,delta=2
    13                           	psect	text1,local,class=CODE,merge=1,delta=2
    14                           	psect	text2,local,class=CODE,merge=1,delta=2
    15                           	psect	text3,local,class=CODE,merge=1,delta=2
    16                           	psect	text4,local,class=CODE,merge=1,delta=2
    17                           	psect	text5,local,class=CODE,merge=1,delta=2
    18                           	psect	config,global,abs,ovrld,class=CONFIG,space=4,delta=2,noexec
    19                           	dabs	1,0x7E,2
    20  0000                     
    21                           ; Version 2.20
    22                           ; Generated 12/02/2020 GMT
    23                           ; 
    24                           ; Copyright © 2020, Microchip Technology Inc. and its subsidiaries ("Microchip")
    25                           ; All rights reserved.
    26                           ; 
    27                           ; This software is developed by Microchip Technology Inc. and its subsidiaries ("Microch
      +                          ip").
    28                           ; 
    29                           ; Redistribution and use in source and binary forms, with or without modification, are
    30                           ; permitted provided that the following conditions are met:
    31                           ; 
    32                           ;     1. Redistributions of source code must retain the above copyright notice, this lis
      +                          t of
    33                           ;        conditions and the following disclaimer.
    34                           ; 
    35                           ;     2. Redistributions in binary form must reproduce the above copyright notice, this 
      +                          list
    36                           ;        of conditions and the following disclaimer in the documentation and/or other
    37                           ;        materials provided with the distribution.
    38                           ; 
    39                           ;     3. Microchip's name may not be used to endorse or promote products derived from th
      +                          is
    40                           ;        software without specific prior written permission.
    41                           ; 
    42                           ; THIS SOFTWARE IS PROVIDED BY MICROCHIP "AS IS" AND ANY EXPRESS OR IMPLIED WARRANTIES,
    43                           ; INCLUDING, BUT NOT LIMITED TO, THE IMPLIED WARRANTIES OF MERCHANTABILITY AND FITNESS F
      +                          OR
    44                           ; PURPOSE ARE DISCLAIMED.  IN NO EVENT SHALL MICROCHIP BE LIABLE FOR ANY DIRECT, INDIREC
      +                          T,
    45                           ; INCIDENTAL, SPECIAL, EXEMPLARY, OR CONSEQUENTIAL DAMAGES (INCLUDING BUT NOT LIMITED TO
    46                           ; PROCUREMENT OF SUBSTITUTE GOODS OR SERVICES; LOSS OF USE, DATA OR PROFITS; OR BUSINESS
    47                           ; INTERRUPTION) HOWSOEVER CAUSED AND ON ANY THEORY OF LIABILITY, WHETHER IN CONTRACT, ST
      +                          RICT
    48                           ; LIABILITY, OR TORT (INCLUDING NEGLIGENCE OR OTHERWISE) ARISING IN ANY WAY OUT OF THE U
      +                          SE OF
    49                           ; THIS SOFTWARE, EVEN IF ADVISED OF THE POSSIBILITY OF SUCH DAMAGE.
    50                           ; 
    51                           ; 
    52                           ; Code-generator required, PIC16F887 Definitions
    53                           ; 
    54                           ; SFR Addresses
    55  0000                     	;# 
    56  0001                     	;# 
    57  0002                     	;# 
    58  0003                     	;# 
    59  0004                     	;# 
    60  0005                     	;# 
    61  0006                     	;# 
    62  0007                     	;# 
    63  0008                     	;# 
    64  0009                     	;# 
    65  000A                     	;# 
    66  000B                     	;# 
    67  000C                     	;# 
    68  000D                     	;# 
    69  000E                     	;# 
    70  000E                     	;# 
    71  000F                     	;# 
    72  0010                     	;# 
    73  0011                     	;# 
    74  0012                     	;# 
    75  0013                     	;# 
    76  0014                     	;# 
    77  0015                     	;# 
    78  0015                     	;# 
    79  0016                     	;# 
    80  0017                     	;# 
    81  0018                     	;# 
    82  0019                     	;# 
    83  001A                     	;# 
    84  001B                     	;# 
    85  001B                     	;# 
    86  001C                     	;# 
    87  001D                     	;# 
    88  001E                     	;# 
    89  001F                     	;# 
    90  0081                     	;# 
    91  0085                     	;# 
    92  0086                     	;# 
    93  0087                     	;# 
    94  0088                     	;# 
    95  0089                     	;# 
    96  008C                     	;# 
    97  008D                     	;# 
    98  008E                     	;# 
    99  008F                     	;# 
   100  0090                     	;# 
   101  0091                     	;# 
   102  0092                     	;# 
   103  0093                     	;# 
   104  0093                     	;# 
   105  0093                     	;# 
   106  0094                     	;# 
   107  0095                     	;# 
   108  0096                     	;# 
   109  0097                     	;# 
   110  0098                     	;# 
   111  0099                     	;# 
   112  009A                     	;# 
   113  009B                     	;# 
   114  009C                     	;# 
   115  009D                     	;# 
   116  009E                     	;# 
   117  009F                     	;# 
   118  0105                     	;# 
   119  0107                     	;# 
   120  0108                     	;# 
   121  0109                     	;# 
   122  010C                     	;# 
   123  010C                     	;# 
   124  010D                     	;# 
   125  010E                     	;# 
   126  010F                     	;# 
   127  0185                     	;# 
   128  0187                     	;# 
   129  0188                     	;# 
   130  0189                     	;# 
   131  018C                     	;# 
   132  018D                     	;# 
   133  0000                     	;# 
   134  0001                     	;# 
   135  0002                     	;# 
   136  0003                     	;# 
   137  0004                     	;# 
   138  0005                     	;# 
   139  0006                     	;# 
   140  0007                     	;# 
   141  0008                     	;# 
   142  0009                     	;# 
   143  000A                     	;# 
   144  000B                     	;# 
   145  000C                     	;# 
   146  000D                     	;# 
   147  000E                     	;# 
   148  000E                     	;# 
   149  000F                     	;# 
   150  0010                     	;# 
   151  0011                     	;# 
   152  0012                     	;# 
   153  0013                     	;# 
   154  0014                     	;# 
   155  0015                     	;# 
   156  0015                     	;# 
   157  0016                     	;# 
   158  0017                     	;# 
   159  0018                     	;# 
   160  0019                     	;# 
   161  001A                     	;# 
   162  001B                     	;# 
   163  001B                     	;# 
   164  001C                     	;# 
   165  001D                     	;# 
   166  001E                     	;# 
   167  001F                     	;# 
   168  0081                     	;# 
   169  0085                     	;# 
   170  0086                     	;# 
   171  0087                     	;# 
   172  0088                     	;# 
   173  0089                     	;# 
   174  008C                     	;# 
   175  008D                     	;# 
   176  008E                     	;# 
   177  008F                     	;# 
   178  0090                     	;# 
   179  0091                     	;# 
   180  0092                     	;# 
   181  0093                     	;# 
   182  0093                     	;# 
   183  0093                     	;# 
   184  0094                     	;# 
   185  0095                     	;# 
   186  0096                     	;# 
   187  0097                     	;# 
   188  0098                     	;# 
   189  0099                     	;# 
   190  009A                     	;# 
   191  009B                     	;# 
   192  009C                     	;# 
   193  009D                     	;# 
   194  009E                     	;# 
   195  009F                     	;# 
   196  0105                     	;# 
   197  0107                     	;# 
   198  0108                     	;# 
   199  0109                     	;# 
   200  010C                     	;# 
   201  010C                     	;# 
   202  010D                     	;# 
   203  010E                     	;# 
   204  010F                     	;# 
   205  0185                     	;# 
   206  0187                     	;# 
   207  0188                     	;# 
   208  0189                     	;# 
   209  018C                     	;# 
   210  018D                     	;# 
   211  0000                     	;# 
   212  0001                     	;# 
   213  0002                     	;# 
   214  0003                     	;# 
   215  0004                     	;# 
   216  0005                     	;# 
   217  0006                     	;# 
   218  0007                     	;# 
   219  0008                     	;# 
   220  0009                     	;# 
   221  000A                     	;# 
   222  000B                     	;# 
   223  000C                     	;# 
   224  000D                     	;# 
   225  000E                     	;# 
   226  000E                     	;# 
   227  000F                     	;# 
   228  0010                     	;# 
   229  0011                     	;# 
   230  0012                     	;# 
   231  0013                     	;# 
   232  0014                     	;# 
   233  0015                     	;# 
   234  0015                     	;# 
   235  0016                     	;# 
   236  0017                     	;# 
   237  0018                     	;# 
   238  0019                     	;# 
   239  001A                     	;# 
   240  001B                     	;# 
   241  001B                     	;# 
   242  001C                     	;# 
   243  001D                     	;# 
   244  001E                     	;# 
   245  001F                     	;# 
   246  0081                     	;# 
   247  0085                     	;# 
   248  0086                     	;# 
   249  0087                     	;# 
   250  0088                     	;# 
   251  0089                     	;# 
   252  008C                     	;# 
   253  008D                     	;# 
   254  008E                     	;# 
   255  008F                     	;# 
   256  0090                     	;# 
   257  0091                     	;# 
   258  0092                     	;# 
   259  0093                     	;# 
   260  0093                     	;# 
   261  0093                     	;# 
   262  0094                     	;# 
   263  0095                     	;# 
   264  0096                     	;# 
   265  0097                     	;# 
   266  0098                     	;# 
   267  0099                     	;# 
   268  009A                     	;# 
   269  009B                     	;# 
   270  009C                     	;# 
   271  009D                     	;# 
   272  009E                     	;# 
   273  009F                     	;# 
   274  0105                     	;# 
   275  0107                     	;# 
   276  0108                     	;# 
   277  0109                     	;# 
   278  010C                     	;# 
   279  010C                     	;# 
   280  010D                     	;# 
   281  010E                     	;# 
   282  010F                     	;# 
   283  0185                     	;# 
   284  0187                     	;# 
   285  0188                     	;# 
   286  0189                     	;# 
   287  018C                     	;# 
   288  018D                     	;# 
   289                           
   290                           	psect	idataBANK0
   291  0488                     __pidataBANK0:
   292                           
   293                           ;initializer for _text
   294  0488  3420               	retlw	32
   295  0489  344D               	retlw	77
   296  048A  3469               	retlw	105
   297  048B  3463               	retlw	99
   298  048C  3472               	retlw	114
   299  048D  346F               	retlw	111
   300  048E  3473               	retlw	115
   301  048F  3420               	retlw	32
   302  0490  3431               	retlw	49
   303  0491  3420               	retlw	32
   304                           
   305                           ;initializer for main@F1471
   306  0492  3407               	retlw	7
   307  0493  3400               	retlw	0
   308  0494  341A               	retlw	26
   309  0495  342C               	retlw	44
   310  0496  343E               	retlw	62
   311  0006                     _PORTB	set	6
   312  0005                     _PORTA	set	5
   313  0007                     _PORTC	set	7
   314  0087                     _TRISC	set	135
   315  0086                     _TRISB	set	134
   316  0085                     _TRISA	set	133
   317                           
   318                           	psect	strings
   319  0003                     __pstrings:
   320  0003                     stringtab:
   321  0003                     __stringtab:
   322  0003                     stringcode:	
   323                           ;	String table - string pointers are 1 byte each
   324                           
   325  0003                     stringdir:
   326  0003  3000               	movlw	high stringdir
   327  0004  008A               	movwf	10
   328  0005  0804               	movf	4,w
   329  0006  0A84               	incf	4,f
   330  0007  0782               	addwf	2,f
   331  0008                     __stringbase:
   332  0008  3400               	retlw	0
   333  0009                     __end_of__stringtab:
   334  0009                     STR_1:
   335  0009  3420               	retlw	32	;' '
   336  000A  3420               	retlw	32	;' '
   337  000B  3448               	retlw	72	;'H'
   338  000C  346F               	retlw	111	;'o'
   339  000D  346C               	retlw	108	;'l'
   340  000E  3461               	retlw	97	;'a'
   341  000F  3420               	retlw	32	;' '
   342  0010  346D               	retlw	109	;'m'
   343  0011  3475               	retlw	117	;'u'
   344  0012  346E               	retlw	110	;'n'
   345  0013  3464               	retlw	100	;'d'
   346  0014  346F               	retlw	111	;'o'
   347  0015  3421               	retlw	33	;'!'
   348  0016  3420               	retlw	32	;' '
   349  0017  3420               	retlw	32	;' '
   350  0018  3400               	retlw	0
   351                           
   352                           	psect	cinit
   353  07E7                     start_initialization:	
   354                           ; #config settings
   355                           
   356  07E7                     __initialization:
   357                           
   358                           ; Initialize objects allocated to BANK0
   359  07E7  1383               	bcf	3,7	;select IRP bank0
   360  07E8  302F               	movlw	low (__pdataBANK0+15)
   361  07E9  00FD               	movwf	btemp+-1
   362  07EA  3004               	movlw	high __pidataBANK0
   363  07EB  00FE               	movwf	btemp
   364  07EC  3088               	movlw	low __pidataBANK0
   365  07ED  00FF               	movwf	btemp+1
   366  07EE  3020               	movlw	low __pdataBANK0
   367  07EF  0084               	movwf	4
   368  07F0  120A  118A  249B  120A  118A  	fcall	init_ram0
   369                           
   370                           ; Clear objects allocated to BANK0
   371  07F5  01B8               	clrf	__pbssBANK0& (0+127)
   372  07F6  01B9               	clrf	(__pbssBANK0+1)& (0+127)
   373  07F7  01BA               	clrf	(__pbssBANK0+2)& (0+127)
   374  07F8  01BB               	clrf	(__pbssBANK0+3)& (0+127)
   375  07F9  01BC               	clrf	(__pbssBANK0+4)& (0+127)
   376  07FA  01BD               	clrf	(__pbssBANK0+5)& (0+127)
   377  07FB  01BE               	clrf	(__pbssBANK0+6)& (0+127)
   378  07FC                     end_of_initialization:	
   379                           ;End of C runtime variable initialization code
   380                           
   381  07FC                     __end_of__initialization:
   382  07FC  0183               	clrf	3
   383  07FD  120A  118A  2DC8   	ljmp	_main	;jump to C main() function
   384                           
   385                           	psect	bssBANK0
   386  0038                     __pbssBANK0:
   387  0038                     _lcd:
   388  0038                     	ds	5
   389  003D                     _c:
   390  003D                     	ds	1
   391  003E                     _i:
   392  003E                     	ds	1
   393                           
   394                           	psect	dataBANK0
   395  0020                     __pdataBANK0:
   396  0020                     _text:
   397  0020                     	ds	10
   398  002A                     main@F1471:
   399  002A                     	ds	5
   400                           
   401                           	psect	inittext
   402  0497                     init_fetch0:	
   403                           ;	Called with low address in FSR and high address in W
   404                           
   405  0497  087E               	movf	btemp,w
   406  0498  008A               	movwf	10
   407  0499  087F               	movf	btemp+1,w
   408  049A  0082               	movwf	2
   409  049B                     init_ram0:	
   410                           ;Called with:
   411                           ;	high address of idata address in btemp 
   412                           ;	low address of idata address in btemp+1 
   413                           ;	low address of data in FSR
   414                           ;	high address + 1 of data in btemp-1
   415                           
   416  049B  120A  118A  2497  120A  118A  	fcall	init_fetch0
   417  04A0  0080               	movwf	0
   418  04A1  0A84               	incf	4,f
   419  04A2  0804               	movf	4,w
   420  04A3  067D               	xorwf	btemp+-1,w
   421  04A4  1903               	btfsc	3,2
   422  04A5  3400               	retlw	0
   423  04A6  0AFF               	incf	btemp+1,f
   424  04A7  1903               	btfsc	3,2
   425  04A8  0AFE               	incf	btemp,f
   426  04A9  2C9B               	goto	init_ram0
   427                           
   428                           	psect	cstackCOMMON
   429  0070                     __pcstackCOMMON:
   430  0070                     ?_LCD_Write:
   431  0070                     ?_LCD_putrs:	
   432                           ; 1 bytes @ 0x0
   433                           
   434  0070                     ?_LCD_putc:	
   435                           ; 1 bytes @ 0x0
   436                           
   437  0070                     ?_LCD_Out:	
   438                           ; 1 bytes @ 0x0
   439                           
   440  0070                     ??_LCD_Out:	
   441                           ; 1 bytes @ 0x0
   442                           
   443  0070                     ?_main:	
   444                           ; 1 bytes @ 0x0
   445                           
   446                           
   447                           ; 2 bytes @ 0x0
   448  0070                     	ds	3
   449  0073                     LCD_Out@c:
   450                           
   451                           ; 1 bytes @ 0x3
   452  0073                     	ds	1
   453  0074                     ??_LCD_Write:
   454  0074                     ??_LCD_putc:	
   455                           ; 1 bytes @ 0x4
   456                           
   457                           
   458                           ; 1 bytes @ 0x4
   459  0074                     	ds	3
   460  0077                     LCD_Write@c:
   461  0077                     LCD_putc@c:	
   462                           ; 1 bytes @ 0x7
   463                           
   464                           
   465                           ; 1 bytes @ 0x7
   466  0077                     	ds	1
   467  0078                     ?_LCD_Init:
   468  0078                     ??_LCD_putrs:	
   469                           ; 1 bytes @ 0x8
   470                           
   471  0078                     LCD_putrs@i:	
   472                           ; 1 bytes @ 0x8
   473                           
   474  0078                     LCD_Init@display:	
   475                           ; 2 bytes @ 0x8
   476                           
   477                           
   478                           ; 5 bytes @ 0x8
   479  0078                     	ds	2
   480  007A                     LCD_putrs@a:
   481                           
   482                           ; 1 bytes @ 0xA
   483  007A                     	ds	3
   484  007D                     LCD_Init@cmd:
   485                           
   486                           ; 1 bytes @ 0xD
   487  007D                     	ds	1
   488                           
   489                           	psect	cstackBANK0
   490  002F                     __pcstackBANK0:
   491  002F                     ??_LCD_Init:
   492                           
   493                           ; 1 bytes @ 0x0
   494  002F                     	ds	2
   495  0031                     ??_main:
   496                           
   497                           ; 1 bytes @ 0x2
   498  0031                     	ds	2
   499  0033                     main@lcd:
   500                           
   501                           ; 5 bytes @ 0x4
   502  0033                     	ds	5
   503                           
   504                           	psect	maintext
   505  05C8                     __pmaintext:	
   506 ;;
   507 ;;Main: autosize = 0, tempsize = 2, incstack = 0, save=0
   508 ;;
   509 ;; *************** function _main *****************
   510 ;; Defined at:
   511 ;;		line 25 in file "main.c"
   512 ;; Parameters:    Size  Location     Type
   513 ;;		None
   514 ;; Auto vars:     Size  Location     Type
   515 ;;  lcd             5    4[BANK0 ] struct .
   516 ;; Return value:  Size  Location     Type
   517 ;;                  2   22[None  ] int 
   518 ;; Registers used:
   519 ;;		wreg, fsr0l, fsr0h, status,2, status,0, pclath, cstack
   520 ;; Tracked objects:
   521 ;;		On entry : B00/0
   522 ;;		On exit  : 0/0
   523 ;;		Unchanged: 0/0
   524 ;; Data sizes:     COMMON   BANK0   BANK1   BANK3   BANK2
   525 ;;      Params:         0       0       0       0       0
   526 ;;      Locals:         0       5       0       0       0
   527 ;;      Temps:          0       2       0       0       0
   528 ;;      Totals:         0       7       0       0       0
   529 ;;Total ram usage:        7 bytes
   530 ;; Hardware stack levels required when called: 3
   531 ;; This function calls:
   532 ;;		_LCD_Init
   533 ;;		_LCD_Write
   534 ;;		_LCD_putc
   535 ;;		_LCD_putrs
   536 ;; This function is called by:
   537 ;;		Startup code after reset
   538 ;; This function uses a non-reentrant model
   539 ;;
   540                           
   541                           
   542                           ;psect for function _main
   543  05C8                     _main:
   544  05C8                     l1007:	
   545                           ;incstack = 0
   546                           ; Regs used in _main: [wreg-fsr0h+status,2+status,0+pclath+cstack]
   547                           
   548                           
   549                           ;main.c: 27:   }
   550  05C8  3033               	movlw	main@lcd& (0+255)
   551  05C9  0084               	movwf	4
   552  05CA  1283               	bcf	3,5	;RP0=0, select bank0
   553  05CB  1303               	bcf	3,6	;RP1=0, select bank0
   554  05CC  082A               	movf	main@F1471,w
   555  05CD  1383               	bcf	3,7	;select IRP bank0
   556  05CE  0080               	movwf	0
   557  05CF  0A84               	incf	4,f
   558  05D0  082B               	movf	main@F1471+1,w
   559  05D1  0080               	movwf	0
   560  05D2  0A84               	incf	4,f
   561  05D3  082C               	movf	main@F1471+2,w
   562  05D4  0080               	movwf	0
   563  05D5  0A84               	incf	4,f
   564  05D6  082D               	movf	main@F1471+3,w
   565  05D7  0080               	movwf	0
   566  05D8  0A84               	incf	4,f
   567  05D9  082E               	movf	main@F1471+4,w
   568  05DA  0080               	movwf	0
   569  05DB                     l1009:
   570                           
   571                           ;main.c: 29:   for (i = 0; i < 100; i++)
   572  05DB  3078               	movlw	LCD_Init@display& (0+255)
   573  05DC  0084               	movwf	4
   574  05DD  0833               	movf	main@lcd,w
   575  05DE  0080               	movwf	0
   576  05DF  0A84               	incf	4,f
   577  05E0  0834               	movf	main@lcd+1,w
   578  05E1  0080               	movwf	0
   579  05E2  0A84               	incf	4,f
   580  05E3  0835               	movf	main@lcd+2,w
   581  05E4  0080               	movwf	0
   582  05E5  0A84               	incf	4,f
   583  05E6  0836               	movf	main@lcd+3,w
   584  05E7  0080               	movwf	0
   585  05E8  0A84               	incf	4,f
   586  05E9  0837               	movf	main@lcd+4,w
   587  05EA  0080               	movwf	0
   588  05EB  120A  118A  2667  120A  118A  	fcall	_LCD_Init
   589  05F0                     l1011:
   590  05F0  3000               	movlw	0
   591  05F1  120A  118A  24CF  120A  118A  	fcall	_LCD_Write
   592  05F6                     l1013:
   593  05F6  3001               	movlw	1
   594  05F7  120A  118A  24CF  120A  118A  	fcall	_LCD_Write
   595  05FC                     l1015:
   596  05FC  3008               	movlw	8
   597  05FD  120A  118A  24CF  120A  118A  	fcall	_LCD_Write
   598  0602                     l1017:
   599  0602  3000               	movlw	0
   600  0603  120A  118A  24CF  120A  118A  	fcall	_LCD_Write
   601  0608                     l44:
   602                           
   603                           ;main.c: 36: }
   604  0608  3001               	movlw	(low ((STR_1-__stringbase)| (0+32768)))& (0+255)
   605  0609  120A  118A  24AA  120A  118A  	fcall	_LCD_putrs
   606  060E                     l1027:
   607  060E  300C               	movlw	12
   608  060F  120A  118A  24CF  120A  118A  	fcall	_LCD_Write
   609  0614  3003               	movlw	3
   610  0615  120A  118A  24CF  120A  118A  	fcall	_LCD_Write
   611  061A                     l1033:
   612  061A  1283               	bcf	3,5	;RP0=0, select bank0
   613  061B  1303               	bcf	3,6	;RP1=0, select bank0
   614  061C  01BD               	clrf	_c
   615  061D                     l1039:
   616  061D  083D               	movf	_c,w
   617  061E  3E20               	addlw	(low (_text| 0))& (0+255)
   618  061F  0084               	movwf	4
   619  0620  1383               	bcf	3,7	;select IRP bank0
   620  0621  0800               	movf	0,w
   621  0622  120A  118A  252A  120A  118A  	fcall	_LCD_putc
   622  0627                     l1041:
   623  0627  1283               	bcf	3,5	;RP0=0, select bank0
   624  0628  1303               	bcf	3,6	;RP1=0, select bank0
   625  0629  01BE               	clrf	_i
   626  062A                     l1047:
   627  062A  3041               	movlw	65
   628  062B  1283               	bcf	3,5	;RP0=0, select bank0
   629  062C  1303               	bcf	3,6	;RP1=0, select bank0
   630  062D  00B2               	movwf	??_main+1
   631  062E  30ED               	movlw	237
   632  062F  00B1               	movwf	??_main
   633  0630                     u617:
   634  0630  0BB1               	decfsz	??_main,f
   635  0631  2E30               	goto	u617
   636  0632  0BB2               	decfsz	??_main+1,f
   637  0633  2E30               	goto	u617
   638  0634  2E35               	nop2
   639  0635                     l1049:
   640  0635  3001               	movlw	1
   641  0636  1283               	bcf	3,5	;RP0=0, select bank0
   642  0637  1303               	bcf	3,6	;RP1=0, select bank0
   643  0638  00B1               	movwf	??_main
   644  0639  0831               	movf	??_main,w
   645  063A  07BE               	addwf	_i,f
   646  063B                     l1051:
   647  063B  301E               	movlw	30
   648  063C  023E               	subwf	_i,w
   649  063D  1C03               	skipc
   650  063E  2E40               	goto	u571
   651  063F  2E41               	goto	u570
   652  0640                     u571:
   653  0640  2E2A               	goto	l1047
   654  0641                     u570:
   655  0641                     l1053:
   656  0641  3001               	movlw	1
   657  0642  00B1               	movwf	??_main
   658  0643  0831               	movf	??_main,w
   659  0644  07BD               	addwf	_c,f
   660  0645                     l1055:
   661  0645  300A               	movlw	10
   662  0646  023D               	subwf	_c,w
   663  0647  1C03               	skipc
   664  0648  2E4A               	goto	u581
   665  0649  2E4B               	goto	u580
   666  064A                     u581:
   667  064A  2E1D               	goto	l1039
   668  064B                     u580:
   669  064B                     l1057:
   670  064B  01BE               	clrf	_i
   671  064C                     l1063:
   672  064C  3041               	movlw	65
   673  064D  1283               	bcf	3,5	;RP0=0, select bank0
   674  064E  1303               	bcf	3,6	;RP1=0, select bank0
   675  064F  00B2               	movwf	??_main+1
   676  0650  30ED               	movlw	237
   677  0651  00B1               	movwf	??_main
   678  0652                     u627:
   679  0652  0BB1               	decfsz	??_main,f
   680  0653  2E52               	goto	u627
   681  0654  0BB2               	decfsz	??_main+1,f
   682  0655  2E52               	goto	u627
   683  0656  2E57               	nop2
   684  0657                     l1065:
   685  0657  3001               	movlw	1
   686  0658  1283               	bcf	3,5	;RP0=0, select bank0
   687  0659  1303               	bcf	3,6	;RP1=0, select bank0
   688  065A  00B1               	movwf	??_main
   689  065B  0831               	movf	??_main,w
   690  065C  07BE               	addwf	_i,f
   691  065D                     l1067:
   692  065D  3064               	movlw	100
   693  065E  023E               	subwf	_i,w
   694  065F  1C03               	skipc
   695  0660  2E62               	goto	u591
   696  0661  2E63               	goto	u590
   697  0662                     u591:
   698  0662  2E4C               	goto	l1063
   699  0663                     u590:
   700  0663  2DF0               	goto	l1011
   701  0664  120A  118A  2800   	ljmp	start
   702  0667                     __end_of_main:
   703                           
   704                           	psect	text1
   705  04AA                     __ptext1:	
   706 ;; *************** function _LCD_putrs *****************
   707 ;; Defined at:
   708 ;;		line 144 in file "lcd.c"
   709 ;; Parameters:    Size  Location     Type
   710 ;;  a               1    wreg     PTR const unsigned char 
   711 ;;		 -> STR_1(16), 
   712 ;; Auto vars:     Size  Location     Type
   713 ;;  a               1   10[COMMON] PTR const unsigned char 
   714 ;;		 -> STR_1(16), 
   715 ;;  i               2    8[COMMON] int 
   716 ;; Return value:  Size  Location     Type
   717 ;;                  1    wreg      void 
   718 ;; Registers used:
   719 ;;		wreg, fsr0l, fsr0h, status,2, status,0, pclath, cstack
   720 ;; Tracked objects:
   721 ;;		On entry : 0/0
   722 ;;		On exit  : 0/0
   723 ;;		Unchanged: 0/0
   724 ;; Data sizes:     COMMON   BANK0   BANK1   BANK3   BANK2
   725 ;;      Params:         0       0       0       0       0
   726 ;;      Locals:         3       0       0       0       0
   727 ;;      Temps:          0       0       0       0       0
   728 ;;      Totals:         3       0       0       0       0
   729 ;;Total ram usage:        3 bytes
   730 ;; Hardware stack levels used: 1
   731 ;; Hardware stack levels required when called: 2
   732 ;; This function calls:
   733 ;;		_LCD_putc
   734 ;; This function is called by:
   735 ;;		_main
   736 ;; This function uses a non-reentrant model
   737 ;;
   738                           
   739                           
   740                           ;psect for function _LCD_putrs
   741  04AA                     _LCD_putrs:
   742                           
   743                           ;incstack = 0
   744                           ; Regs used in _LCD_putrs: [wreg-fsr0h+status,2+status,0+pclath+cstack]
   745                           ;LCD_putrs@a stored from wreg
   746  04AA  00FA               	movwf	LCD_putrs@a
   747  04AB                     l999:
   748                           
   749                           ;lcd.c: 146:     for ( int i = 0; a[i] != '\0'; ++i ) {
   750  04AB  01F8               	clrf	LCD_putrs@i
   751  04AC  01F9               	clrf	LCD_putrs@i+1
   752  04AD  2CC1               	goto	l1005
   753  04AE                     l1001:
   754                           
   755                           ;lcd.c: 147:         LCD_putc(a[i]);
   756  04AE  0878               	movf	LCD_putrs@i,w
   757  04AF  077A               	addwf	LCD_putrs@a,w
   758  04B0  0084               	movwf	4
   759  04B1  120A  118A  2003  120A  118A  	fcall	stringdir
   760  04B6  120A  118A  252A  120A  118A  	fcall	_LCD_putc
   761  04BB                     l1003:
   762                           
   763                           ;lcd.c: 148:     }
   764  04BB  3001               	movlw	1
   765  04BC  07F8               	addwf	LCD_putrs@i,f
   766  04BD  1803               	skipnc
   767  04BE  0AF9               	incf	LCD_putrs@i+1,f
   768  04BF  3000               	movlw	0
   769  04C0  07F9               	addwf	LCD_putrs@i+1,f
   770  04C1                     l1005:
   771  04C1  0878               	movf	LCD_putrs@i,w
   772  04C2  077A               	addwf	LCD_putrs@a,w
   773  04C3  0084               	movwf	4
   774  04C4  120A  118A  2003  120A  118A  	fcall	stringdir
   775  04C9  3A00               	xorlw	0
   776  04CA  1D03               	skipz
   777  04CB  2CCD               	goto	u561
   778  04CC  2CCE               	goto	u560
   779  04CD                     u561:
   780  04CD  2CAE               	goto	l1001
   781  04CE                     u560:
   782  04CE                     l137:
   783  04CE  0008               	return
   784  04CF                     __end_of_LCD_putrs:
   785                           
   786                           	psect	text2
   787  052A                     __ptext2:	
   788 ;; *************** function _LCD_putc *****************
   789 ;; Defined at:
   790 ;;		line 119 in file "lcd.c"
   791 ;; Parameters:    Size  Location     Type
   792 ;;  c               1    wreg     unsigned char 
   793 ;; Auto vars:     Size  Location     Type
   794 ;;  c               1    7[COMMON] unsigned char 
   795 ;; Return value:  Size  Location     Type
   796 ;;                  1    wreg      void 
   797 ;; Registers used:
   798 ;;		wreg, fsr0l, fsr0h, status,2, status,0, pclath, cstack
   799 ;; Tracked objects:
   800 ;;		On entry : 0/0
   801 ;;		On exit  : 0/0
   802 ;;		Unchanged: 0/0
   803 ;; Data sizes:     COMMON   BANK0   BANK1   BANK3   BANK2
   804 ;;      Params:         0       0       0       0       0
   805 ;;      Locals:         1       0       0       0       0
   806 ;;      Temps:          3       0       0       0       0
   807 ;;      Totals:         4       0       0       0       0
   808 ;;Total ram usage:        4 bytes
   809 ;; Hardware stack levels used: 1
   810 ;; Hardware stack levels required when called: 1
   811 ;; This function calls:
   812 ;;		_LCD_Out
   813 ;; This function is called by:
   814 ;;		_main
   815 ;;		_LCD_putrs
   816 ;;		_LCD_puts
   817 ;; This function uses a non-reentrant model
   818 ;;
   819                           
   820                           
   821                           ;psect for function _LCD_putc
   822  052A                     _LCD_putc:
   823                           
   824                           ;incstack = 0
   825                           ; Regs used in _LCD_putc: [wreg-fsr0h+status,2+status,0+pclath+cstack]
   826                           ;LCD_putc@c stored from wreg
   827  052A  00F7               	movwf	LCD_putc@c
   828  052B                     l937:
   829                           
   830                           ;lcd.c: 121:    *(lcd.PORT) |= 1 << lcd.RS;
   831  052B  3001               	movlw	1
   832  052C  00F4               	movwf	??_LCD_putc
   833  052D  1283               	bcf	3,5	;RP0=0, select bank0
   834  052E  1303               	bcf	3,6	;RP1=0, select bank0
   835  052F  083A               	movf	_lcd+2,w
   836  0530  3907               	andlw	7
   837  0531  3E01               	addlw	1
   838  0532  2D35               	goto	u464
   839  0533                     u465:
   840  0533  1003               	clrc
   841  0534  0DF4               	rlf	??_LCD_putc,f
   842  0535                     u464:
   843  0535  3EFF               	addlw	-1
   844  0536  1D03               	skipz
   845  0537  2D33               	goto	u465
   846  0538  0874               	movf	??_LCD_putc,w
   847  0539  00F5               	movwf	??_LCD_putc+1
   848  053A  0838               	movf	_lcd,w
   849  053B  0084               	movwf	4
   850  053C  1783               	bsf	3,7
   851  053D  1C39               	btfss	_lcd+1,0
   852  053E  1383               	bcf	3,7
   853  053F  0875               	movf	??_LCD_putc+1,w
   854  0540  0480               	iorwf	0,f
   855  0541                     l939:
   856                           
   857                           ;lcd.c: 122:     LCD_Out((c & 0xF0) >> 4);
   858  0541  0877               	movf	LCD_putc@c,w
   859  0542  00F4               	movwf	??_LCD_putc
   860  0543  3004               	movlw	4
   861  0544                     u475:
   862  0544  1003               	clrc
   863  0545  0CF4               	rrf	??_LCD_putc,f
   864  0546  3EFF               	addlw	-1
   865  0547  1D03               	skipz
   866  0548  2D44               	goto	u475
   867  0549  0874               	movf	??_LCD_putc,w
   868  054A  390F               	andlw	15
   869  054B  120A  118A  271D  120A  118A  	fcall	_LCD_Out
   870  0550                     l941:
   871                           
   872                           ;lcd.c: 124:     *(lcd.PORT) |= 1 << lcd.EN;
   873  0550  3001               	movlw	1
   874  0551  00F4               	movwf	??_LCD_putc
   875  0552  1283               	bcf	3,5	;RP0=0, select bank0
   876  0553  1303               	bcf	3,6	;RP1=0, select bank0
   877  0554  0C3A               	rrf	_lcd+2,w
   878  0555  00F5               	movwf	??_LCD_putc+1
   879  0556  0CF5               	rrf	??_LCD_putc+1,f
   880  0557  0C75               	rrf	??_LCD_putc+1,w
   881  0558  3907               	andlw	7
   882  0559  3E01               	addlw	1
   883  055A  2D5D               	goto	u484
   884  055B                     u485:
   885  055B  1003               	clrc
   886  055C  0DF4               	rlf	??_LCD_putc,f
   887  055D                     u484:
   888  055D  3EFF               	addlw	-1
   889  055E  1D03               	skipz
   890  055F  2D5B               	goto	u485
   891  0560  0874               	movf	??_LCD_putc,w
   892  0561  00F6               	movwf	??_LCD_putc+2
   893  0562  0838               	movf	_lcd,w
   894  0563  0084               	movwf	4
   895  0564  1783               	bsf	3,7
   896  0565  1C39               	btfss	_lcd+1,0
   897  0566  1383               	bcf	3,7
   898  0567  0876               	movf	??_LCD_putc+2,w
   899  0568  0480               	iorwf	0,f
   900  0569                     l943:
   901                           
   902                           ;lcd.c: 125:     _delay((unsigned long)((40)*(20000000/4000000.0)));
   903  0569  3042               	movlw	66
   904  056A  00F4               	movwf	??_LCD_putc
   905  056B                     u637:
   906  056B  0BF4               	decfsz	??_LCD_putc,f
   907  056C  2D6B               	goto	u637
   908  056D  0000               	nop
   909  056E                     l945:
   910                           
   911                           ;lcd.c: 126:     *(lcd.PORT) &= ~(1 << lcd.EN);
   912  056E  3001               	movlw	1
   913  056F  00F4               	movwf	??_LCD_putc
   914  0570  1283               	bcf	3,5	;RP0=0, select bank0
   915  0571  1303               	bcf	3,6	;RP1=0, select bank0
   916  0572  0C3A               	rrf	_lcd+2,w
   917  0573  00F5               	movwf	??_LCD_putc+1
   918  0574  0CF5               	rrf	??_LCD_putc+1,f
   919  0575  0C75               	rrf	??_LCD_putc+1,w
   920  0576  3907               	andlw	7
   921  0577  3E01               	addlw	1
   922  0578  2D7B               	goto	u494
   923  0579                     u495:
   924  0579  1003               	clrc
   925  057A  0DF4               	rlf	??_LCD_putc,f
   926  057B                     u494:
   927  057B  3EFF               	addlw	-1
   928  057C  1D03               	skipz
   929  057D  2D79               	goto	u495
   930  057E  0874               	movf	??_LCD_putc,w
   931  057F  3AFF               	xorlw	255
   932  0580  00F6               	movwf	??_LCD_putc+2
   933  0581  0838               	movf	_lcd,w
   934  0582  0084               	movwf	4
   935  0583  1783               	bsf	3,7
   936  0584  1C39               	btfss	_lcd+1,0
   937  0585  1383               	bcf	3,7
   938  0586  0876               	movf	??_LCD_putc+2,w
   939  0587  0580               	andwf	0,f
   940  0588                     l947:
   941                           
   942                           ;lcd.c: 128:     LCD_Out(c & 0x0F);
   943  0588  0877               	movf	LCD_putc@c,w
   944  0589  390F               	andlw	15
   945  058A  120A  118A  271D  120A  118A  	fcall	_LCD_Out
   946  058F                     l949:
   947                           
   948                           ;lcd.c: 130:     *(lcd.PORT) |= 1 << lcd.EN;
   949  058F  3001               	movlw	1
   950  0590  00F4               	movwf	??_LCD_putc
   951  0591  1283               	bcf	3,5	;RP0=0, select bank0
   952  0592  1303               	bcf	3,6	;RP1=0, select bank0
   953  0593  0C3A               	rrf	_lcd+2,w
   954  0594  00F5               	movwf	??_LCD_putc+1
   955  0595  0CF5               	rrf	??_LCD_putc+1,f
   956  0596  0C75               	rrf	??_LCD_putc+1,w
   957  0597  3907               	andlw	7
   958  0598  3E01               	addlw	1
   959  0599  2D9C               	goto	u504
   960  059A                     u505:
   961  059A  1003               	clrc
   962  059B  0DF4               	rlf	??_LCD_putc,f
   963  059C                     u504:
   964  059C  3EFF               	addlw	-1
   965  059D  1D03               	skipz
   966  059E  2D9A               	goto	u505
   967  059F  0874               	movf	??_LCD_putc,w
   968  05A0  00F6               	movwf	??_LCD_putc+2
   969  05A1  0838               	movf	_lcd,w
   970  05A2  0084               	movwf	4
   971  05A3  1783               	bsf	3,7
   972  05A4  1C39               	btfss	_lcd+1,0
   973  05A5  1383               	bcf	3,7
   974  05A6  0876               	movf	??_LCD_putc+2,w
   975  05A7  0480               	iorwf	0,f
   976                           
   977                           ;lcd.c: 131:     _delay((unsigned long)((40)*(20000000/4000000.0)));
   978  05A8  3042               	movlw	66
   979  05A9  00F4               	movwf	??_LCD_putc
   980  05AA                     u647:
   981  05AA  0BF4               	decfsz	??_LCD_putc,f
   982  05AB  2DAA               	goto	u647
   983  05AC  0000               	nop
   984  05AD                     l951:
   985                           
   986                           ;lcd.c: 132:     *(lcd.PORT) &= ~(1 << lcd.EN);
   987  05AD  3001               	movlw	1
   988  05AE  00F4               	movwf	??_LCD_putc
   989  05AF  1283               	bcf	3,5	;RP0=0, select bank0
   990  05B0  1303               	bcf	3,6	;RP1=0, select bank0
   991  05B1  0C3A               	rrf	_lcd+2,w
   992  05B2  00F5               	movwf	??_LCD_putc+1
   993  05B3  0CF5               	rrf	??_LCD_putc+1,f
   994  05B4  0C75               	rrf	??_LCD_putc+1,w
   995  05B5  3907               	andlw	7
   996  05B6  3E01               	addlw	1
   997  05B7  2DBA               	goto	u514
   998  05B8                     u515:
   999  05B8  1003               	clrc
  1000  05B9  0DF4               	rlf	??_LCD_putc,f
  1001  05BA                     u514:
  1002  05BA  3EFF               	addlw	-1
  1003  05BB  1D03               	skipz
  1004  05BC  2DB8               	goto	u515
  1005  05BD  0874               	movf	??_LCD_putc,w
  1006  05BE  3AFF               	xorlw	255
  1007  05BF  00F6               	movwf	??_LCD_putc+2
  1008  05C0  0838               	movf	_lcd,w
  1009  05C1  0084               	movwf	4
  1010  05C2  1783               	bsf	3,7
  1011  05C3  1C39               	btfss	_lcd+1,0
  1012  05C4  1383               	bcf	3,7
  1013  05C5  0876               	movf	??_LCD_putc+2,w
  1014  05C6  0580               	andwf	0,f
  1015  05C7                     l125:
  1016  05C7  0008               	return
  1017  05C8                     __end_of_LCD_putc:
  1018                           
  1019                           	psect	text3
  1020  0667                     __ptext3:	
  1021 ;; *************** function _LCD_Init *****************
  1022 ;; Defined at:
  1023 ;;		line 61 in file "lcd.c"
  1024 ;; Parameters:    Size  Location     Type
  1025 ;;  display         5    8[COMMON] struct .
  1026 ;; Auto vars:     Size  Location     Type
  1027 ;;  cmd             1   13[COMMON] unsigned char 
  1028 ;; Return value:  Size  Location     Type
  1029 ;;                  1    wreg      _Bool 
  1030 ;; Registers used:
  1031 ;;		wreg, fsr0l, fsr0h, status,2, status,0, pclath, cstack
  1032 ;; Tracked objects:
  1033 ;;		On entry : 0/0
  1034 ;;		On exit  : 0/0
  1035 ;;		Unchanged: 0/0
  1036 ;; Data sizes:     COMMON   BANK0   BANK1   BANK3   BANK2
  1037 ;;      Params:         5       0       0       0       0
  1038 ;;      Locals:         1       0       0       0       0
  1039 ;;      Temps:          0       2       0       0       0
  1040 ;;      Totals:         6       2       0       0       0
  1041 ;;Total ram usage:        8 bytes
  1042 ;; Hardware stack levels used: 1
  1043 ;; Hardware stack levels required when called: 2
  1044 ;; This function calls:
  1045 ;;		_LCD_Write
  1046 ;; This function is called by:
  1047 ;;		_main
  1048 ;; This function uses a non-reentrant model
  1049 ;;
  1050                           
  1051                           
  1052                           ;psect for function _LCD_Init
  1053  0667                     _LCD_Init:
  1054  0667                     l953:	
  1055                           ;incstack = 0
  1056                           ; Regs used in _LCD_Init: [wreg-fsr0h+status,2+status,0+pclath+cstack]
  1057                           
  1058                           
  1059                           ;lcd.c: 63:     lcd = display;
  1060  0667  3038               	movlw	_lcd& (0+255)
  1061  0668  0084               	movwf	4
  1062  0669  0878               	movf	LCD_Init@display,w
  1063  066A  1383               	bcf	3,7	;select IRP bank0
  1064  066B  0080               	movwf	0
  1065  066C  0A84               	incf	4,f
  1066  066D  0879               	movf	LCD_Init@display+1,w
  1067  066E  0080               	movwf	0
  1068  066F  0A84               	incf	4,f
  1069  0670  087A               	movf	LCD_Init@display+2,w
  1070  0671  0080               	movwf	0
  1071  0672  0A84               	incf	4,f
  1072  0673  087B               	movf	LCD_Init@display+3,w
  1073  0674  0080               	movwf	0
  1074  0675  0A84               	incf	4,f
  1075  0676  087C               	movf	LCD_Init@display+4,w
  1076  0677  0080               	movwf	0
  1077  0678                     l955:
  1078                           
  1079                           ;lcd.c: 72:     if ( lcd.PORT == &PORTA ) {
  1080  0678  3000               	movlw	0
  1081  0679  1283               	bcf	3,5	;RP0=0, select bank0
  1082  067A  1303               	bcf	3,6	;RP1=0, select bank0
  1083  067B  0639               	xorwf	_lcd+1,w
  1084  067C  1D03               	skipz
  1085  067D  2E80               	goto	u525
  1086  067E  3005               	movlw	5
  1087  067F  0638               	xorwf	_lcd,w
  1088  0680                     u525:
  1089  0680  1D03               	skipz
  1090  0681  2E83               	goto	u521
  1091  0682  2E84               	goto	u520
  1092  0683                     u521:
  1093  0683  2E88               	goto	l959
  1094  0684                     u520:
  1095  0684                     l957:
  1096                           
  1097                           ;lcd.c: 73:         TRISA = 0x00;
  1098  0684  1683               	bsf	3,5	;RP0=1, select bank1
  1099  0685  1303               	bcf	3,6	;RP1=0, select bank1
  1100  0686  0185               	clrf	5	;volatile
  1101                           
  1102                           ;lcd.c: 74:     }
  1103  0687  2EA3               	goto	l967
  1104  0688                     l959:
  1105  0688  3000               	movlw	0
  1106  0689  0639               	xorwf	_lcd+1,w
  1107  068A  1D03               	skipz
  1108  068B  2E8E               	goto	u535
  1109  068C  3006               	movlw	6
  1110  068D  0638               	xorwf	_lcd,w
  1111  068E                     u535:
  1112  068E  1D03               	skipz
  1113  068F  2E91               	goto	u531
  1114  0690  2E92               	goto	u530
  1115  0691                     u531:
  1116  0691  2E96               	goto	l963
  1117  0692                     u530:
  1118  0692                     l961:
  1119                           
  1120                           ;lcd.c: 76:         TRISB = 0x00;
  1121  0692  1683               	bsf	3,5	;RP0=1, select bank1
  1122  0693  1303               	bcf	3,6	;RP1=0, select bank1
  1123  0694  0186               	clrf	6	;volatile
  1124                           
  1125                           ;lcd.c: 77:     }
  1126  0695  2EA3               	goto	l967
  1127  0696                     l963:
  1128  0696  3000               	movlw	0
  1129  0697  0639               	xorwf	_lcd+1,w
  1130  0698  1D03               	skipz
  1131  0699  2E9C               	goto	u545
  1132  069A  3007               	movlw	7
  1133  069B  0638               	xorwf	_lcd,w
  1134  069C                     u545:
  1135  069C  1D03               	skipz
  1136  069D  2E9F               	goto	u541
  1137  069E  2EA0               	goto	u540
  1138  069F                     u541:
  1139  069F  2F1C               	goto	l109
  1140  06A0                     u540:
  1141  06A0                     l965:
  1142                           
  1143                           ;lcd.c: 79:         TRISC = 0x00;
  1144  06A0  1683               	bsf	3,5	;RP0=1, select bank1
  1145  06A1  1303               	bcf	3,6	;RP1=0, select bank1
  1146  06A2  0187               	clrf	7	;volatile
  1147  06A3                     l967:	
  1148                           ;lcd.c: 80:     }
  1149                           
  1150                           
  1151                           ;lcd.c: 94:     _delay((unsigned long)((20)*(20000000/4000.0)));
  1152  06A3  3082               	movlw	130
  1153  06A4  1283               	bcf	3,5	;RP0=0, select bank0
  1154  06A5  1303               	bcf	3,6	;RP1=0, select bank0
  1155  06A6  00B0               	movwf	??_LCD_Init+1
  1156  06A7  30DD               	movlw	221
  1157  06A8  00AF               	movwf	??_LCD_Init
  1158  06A9                     u657:
  1159  06A9  0BAF               	decfsz	??_LCD_Init,f
  1160  06AA  2EA9               	goto	u657
  1161  06AB  0BB0               	decfsz	??_LCD_Init+1,f
  1162  06AC  2EA9               	goto	u657
  1163  06AD                     l969:
  1164                           
  1165                           ;lcd.c: 97:     LCD_Write(0x03);
  1166  06AD  3003               	movlw	3
  1167  06AE  120A  118A  24CF  120A  118A  	fcall	_LCD_Write
  1168  06B3                     l971:
  1169                           
  1170                           ;lcd.c: 98:     _delay((unsigned long)((5)*(20000000/4000.0)));
  1171  06B3  3021               	movlw	33
  1172  06B4  1283               	bcf	3,5	;RP0=0, select bank0
  1173  06B5  1303               	bcf	3,6	;RP1=0, select bank0
  1174  06B6  00B0               	movwf	??_LCD_Init+1
  1175  06B7  3075               	movlw	117
  1176  06B8  00AF               	movwf	??_LCD_Init
  1177  06B9                     u667:
  1178  06B9  0BAF               	decfsz	??_LCD_Init,f
  1179  06BA  2EB9               	goto	u667
  1180  06BB  0BB0               	decfsz	??_LCD_Init+1,f
  1181  06BC  2EB9               	goto	u667
  1182  06BD  2EBE               	nop2
  1183                           
  1184                           ;lcd.c: 99:     LCD_Write(0x03);
  1185  06BE  3003               	movlw	3
  1186  06BF  120A  118A  24CF  120A  118A  	fcall	_LCD_Write
  1187  06C4                     l973:
  1188                           
  1189                           ;lcd.c: 100:     _delay((unsigned long)((16)*(20000000/4000.0)));
  1190  06C4  3068               	movlw	104
  1191  06C5  1283               	bcf	3,5	;RP0=0, select bank0
  1192  06C6  1303               	bcf	3,6	;RP1=0, select bank0
  1193  06C7  00B0               	movwf	??_LCD_Init+1
  1194  06C8  30E3               	movlw	227
  1195  06C9  00AF               	movwf	??_LCD_Init
  1196  06CA                     u677:
  1197  06CA  0BAF               	decfsz	??_LCD_Init,f
  1198  06CB  2ECA               	goto	u677
  1199  06CC  0BB0               	decfsz	??_LCD_Init+1,f
  1200  06CD  2ECA               	goto	u677
  1201  06CE  2ECF               	nop2
  1202  06CF                     l975:
  1203                           
  1204                           ;lcd.c: 101:     LCD_Write(0x03);
  1205  06CF  3003               	movlw	3
  1206  06D0  120A  118A  24CF  120A  118A  	fcall	_LCD_Write
  1207  06D5                     l977:
  1208                           
  1209                           ;lcd.c: 104:     LCD_Write(0x02);
  1210  06D5  3002               	movlw	2
  1211  06D6  120A  118A  24CF  120A  118A  	fcall	_LCD_Write
  1212  06DB                     l979:
  1213  06DB  3002               	movlw	2
  1214  06DC  120A  118A  24CF  120A  118A  	fcall	_LCD_Write
  1215  06E1                     l981:
  1216  06E1  3008               	movlw	8
  1217  06E2  120A  118A  24CF  120A  118A  	fcall	_LCD_Write
  1218  06E7                     l983:
  1219  06E7  3000               	movlw	0
  1220  06E8  120A  118A  24CF  120A  118A  	fcall	_LCD_Write
  1221  06ED                     l985:
  1222  06ED  3006               	movlw	6
  1223  06EE  120A  118A  24CF  120A  118A  	fcall	_LCD_Write
  1224  06F3                     l987:
  1225  06F3  3008               	movlw	8
  1226  06F4  1283               	bcf	3,5	;RP0=0, select bank0
  1227  06F5  1303               	bcf	3,6	;RP1=0, select bank0
  1228  06F6  00AF               	movwf	??_LCD_Init
  1229  06F7  082F               	movf	??_LCD_Init,w
  1230  06F8  00FD               	movwf	LCD_Init@cmd
  1231  06F9                     l989:
  1232  06F9  157D               	bsf	LCD_Init@cmd,2
  1233  06FA                     l995:
  1234  06FA  087D               	movf	LCD_Init@cmd,w
  1235  06FB  00AF               	movwf	??_LCD_Init
  1236  06FC  3004               	movlw	4
  1237  06FD                     u555:
  1238  06FD  1003               	clrc
  1239  06FE  0CAF               	rrf	??_LCD_Init,f
  1240  06FF  3EFF               	addlw	-1
  1241  0700  1D03               	skipz
  1242  0701  2EFD               	goto	u555
  1243  0702  082F               	movf	??_LCD_Init,w
  1244  0703  390F               	andlw	15
  1245  0704  120A  118A  24CF  120A  118A  	fcall	_LCD_Write
  1246  0709  087D               	movf	LCD_Init@cmd,w
  1247  070A  390F               	andlw	15
  1248  070B  120A  118A  24CF  120A  118A  	fcall	_LCD_Write
  1249  0710                     l121:	
  1250                           ;lcd.c: 114:     do { LCD_Write( (0x01 & 0xF0) >> 4 ); LCD_Write( 0x01 & 0x0F); } while 
      +                          ( 0 );
  1251                           
  1252  0710  3000               	movlw	0
  1253  0711  120A  118A  24CF  120A  118A  	fcall	_LCD_Write
  1254  0716  3001               	movlw	1
  1255  0717  120A  118A  24CF  120A  118A  	fcall	_LCD_Write
  1256  071C                     l109:
  1257  071C  0008               	return
  1258  071D                     __end_of_LCD_Init:
  1259                           
  1260                           	psect	text4
  1261  04CF                     __ptext4:	
  1262 ;; *************** function _LCD_Write *****************
  1263 ;; Defined at:
  1264 ;;		line 50 in file "lcd.c"
  1265 ;; Parameters:    Size  Location     Type
  1266 ;;  c               1    wreg     unsigned char 
  1267 ;; Auto vars:     Size  Location     Type
  1268 ;;  c               1    7[COMMON] unsigned char 
  1269 ;; Return value:  Size  Location     Type
  1270 ;;                  1    wreg      void 
  1271 ;; Registers used:
  1272 ;;		wreg, fsr0l, fsr0h, status,2, status,0, pclath, cstack
  1273 ;; Tracked objects:
  1274 ;;		On entry : 0/0
  1275 ;;		On exit  : 0/0
  1276 ;;		Unchanged: 0/0
  1277 ;; Data sizes:     COMMON   BANK0   BANK1   BANK3   BANK2
  1278 ;;      Params:         0       0       0       0       0
  1279 ;;      Locals:         1       0       0       0       0
  1280 ;;      Temps:          3       0       0       0       0
  1281 ;;      Totals:         4       0       0       0       0
  1282 ;;Total ram usage:        4 bytes
  1283 ;; Hardware stack levels used: 1
  1284 ;; Hardware stack levels required when called: 1
  1285 ;; This function calls:
  1286 ;;		_LCD_Out
  1287 ;; This function is called by:
  1288 ;;		_main
  1289 ;;		_LCD_Init
  1290 ;; This function uses a non-reentrant model
  1291 ;;
  1292                           
  1293                           
  1294                           ;psect for function _LCD_Write
  1295  04CF                     _LCD_Write:
  1296                           
  1297                           ;incstack = 0
  1298                           ; Regs used in _LCD_Write: [wreg-fsr0h+status,2+status,0+pclath+cstack]
  1299                           ;LCD_Write@c stored from wreg
  1300  04CF  00F7               	movwf	LCD_Write@c
  1301  04D0                     l927:
  1302                           
  1303                           ;lcd.c: 52:     *(lcd.PORT) &= ~(1 << lcd.RS);
  1304  04D0  3001               	movlw	1
  1305  04D1  00F4               	movwf	??_LCD_Write
  1306  04D2  1283               	bcf	3,5	;RP0=0, select bank0
  1307  04D3  1303               	bcf	3,6	;RP1=0, select bank0
  1308  04D4  083A               	movf	_lcd+2,w
  1309  04D5  3907               	andlw	7
  1310  04D6  3E01               	addlw	1
  1311  04D7  2CDA               	goto	u434
  1312  04D8                     u435:
  1313  04D8  1003               	clrc
  1314  04D9  0DF4               	rlf	??_LCD_Write,f
  1315  04DA                     u434:
  1316  04DA  3EFF               	addlw	-1
  1317  04DB  1D03               	skipz
  1318  04DC  2CD8               	goto	u435
  1319  04DD  0874               	movf	??_LCD_Write,w
  1320  04DE  3AFF               	xorlw	255
  1321  04DF  00F5               	movwf	??_LCD_Write+1
  1322  04E0  0838               	movf	_lcd,w
  1323  04E1  0084               	movwf	4
  1324  04E2  1783               	bsf	3,7
  1325  04E3  1C39               	btfss	_lcd+1,0
  1326  04E4  1383               	bcf	3,7
  1327  04E5  0875               	movf	??_LCD_Write+1,w
  1328  04E6  0580               	andwf	0,f
  1329  04E7                     l929:
  1330                           
  1331                           ;lcd.c: 53:     LCD_Out(c);
  1332  04E7  0877               	movf	LCD_Write@c,w
  1333  04E8  120A  118A  271D  120A  118A  	fcall	_LCD_Out
  1334  04ED                     l931:
  1335                           
  1336                           ;lcd.c: 55:     *(lcd.PORT) |= 1 << lcd.EN;
  1337  04ED  3001               	movlw	1
  1338  04EE  00F4               	movwf	??_LCD_Write
  1339  04EF  1283               	bcf	3,5	;RP0=0, select bank0
  1340  04F0  1303               	bcf	3,6	;RP1=0, select bank0
  1341  04F1  0C3A               	rrf	_lcd+2,w
  1342  04F2  00F5               	movwf	??_LCD_Write+1
  1343  04F3  0CF5               	rrf	??_LCD_Write+1,f
  1344  04F4  0C75               	rrf	??_LCD_Write+1,w
  1345  04F5  3907               	andlw	7
  1346  04F6  3E01               	addlw	1
  1347  04F7  2CFA               	goto	u444
  1348  04F8                     u445:
  1349  04F8  1003               	clrc
  1350  04F9  0DF4               	rlf	??_LCD_Write,f
  1351  04FA                     u444:
  1352  04FA  3EFF               	addlw	-1
  1353  04FB  1D03               	skipz
  1354  04FC  2CF8               	goto	u445
  1355  04FD  0874               	movf	??_LCD_Write,w
  1356  04FE  00F6               	movwf	??_LCD_Write+2
  1357  04FF  0838               	movf	_lcd,w
  1358  0500  0084               	movwf	4
  1359  0501  1783               	bsf	3,7
  1360  0502  1C39               	btfss	_lcd+1,0
  1361  0503  1383               	bcf	3,7
  1362  0504  0876               	movf	??_LCD_Write+2,w
  1363  0505  0480               	iorwf	0,f
  1364  0506                     l933:
  1365                           
  1366                           ;lcd.c: 56:     _delay((unsigned long)((4)*(20000000/4000.0)));
  1367  0506  301A               	movlw	26
  1368  0507  00F5               	movwf	??_LCD_Write+1
  1369  0508  30F8               	movlw	248
  1370  0509  00F4               	movwf	??_LCD_Write
  1371  050A                     u687:
  1372  050A  0BF4               	decfsz	??_LCD_Write,f
  1373  050B  2D0A               	goto	u687
  1374  050C  0BF5               	decfsz	??_LCD_Write+1,f
  1375  050D  2D0A               	goto	u687
  1376  050E  0000               	nop
  1377  050F                     l935:
  1378                           
  1379                           ;lcd.c: 57:     *(lcd.PORT) &= ~(1 << lcd.EN);
  1380  050F  3001               	movlw	1
  1381  0510  00F4               	movwf	??_LCD_Write
  1382  0511  1283               	bcf	3,5	;RP0=0, select bank0
  1383  0512  1303               	bcf	3,6	;RP1=0, select bank0
  1384  0513  0C3A               	rrf	_lcd+2,w
  1385  0514  00F5               	movwf	??_LCD_Write+1
  1386  0515  0CF5               	rrf	??_LCD_Write+1,f
  1387  0516  0C75               	rrf	??_LCD_Write+1,w
  1388  0517  3907               	andlw	7
  1389  0518  3E01               	addlw	1
  1390  0519  2D1C               	goto	u454
  1391  051A                     u455:
  1392  051A  1003               	clrc
  1393  051B  0DF4               	rlf	??_LCD_Write,f
  1394  051C                     u454:
  1395  051C  3EFF               	addlw	-1
  1396  051D  1D03               	skipz
  1397  051E  2D1A               	goto	u455
  1398  051F  0874               	movf	??_LCD_Write,w
  1399  0520  3AFF               	xorlw	255
  1400  0521  00F6               	movwf	??_LCD_Write+2
  1401  0522  0838               	movf	_lcd,w
  1402  0523  0084               	movwf	4
  1403  0524  1783               	bsf	3,7
  1404  0525  1C39               	btfss	_lcd+1,0
  1405  0526  1383               	bcf	3,7
  1406  0527  0876               	movf	??_LCD_Write+2,w
  1407  0528  0580               	andwf	0,f
  1408  0529                     l100:
  1409  0529  0008               	return
  1410  052A                     __end_of_LCD_Write:
  1411                           
  1412                           	psect	text5
  1413  071D                     __ptext5:	
  1414 ;; *************** function _LCD_Out *****************
  1415 ;; Defined at:
  1416 ;;		line 18 in file "lcd.c"
  1417 ;; Parameters:    Size  Location     Type
  1418 ;;  c               1    wreg     unsigned char 
  1419 ;; Auto vars:     Size  Location     Type
  1420 ;;  c               1    3[COMMON] unsigned char 
  1421 ;; Return value:  Size  Location     Type
  1422 ;;                  1    wreg      void 
  1423 ;; Registers used:
  1424 ;;		wreg, fsr0l, fsr0h, status,2, status,0
  1425 ;; Tracked objects:
  1426 ;;		On entry : 0/0
  1427 ;;		On exit  : 0/0
  1428 ;;		Unchanged: 0/0
  1429 ;; Data sizes:     COMMON   BANK0   BANK1   BANK3   BANK2
  1430 ;;      Params:         0       0       0       0       0
  1431 ;;      Locals:         1       0       0       0       0
  1432 ;;      Temps:          3       0       0       0       0
  1433 ;;      Totals:         4       0       0       0       0
  1434 ;;Total ram usage:        4 bytes
  1435 ;; Hardware stack levels used: 1
  1436 ;; This function calls:
  1437 ;;		Nothing
  1438 ;; This function is called by:
  1439 ;;		_LCD_Write
  1440 ;;		_LCD_putc
  1441 ;; This function uses a non-reentrant model
  1442 ;;
  1443                           
  1444                           
  1445                           ;psect for function _LCD_Out
  1446  071D                     _LCD_Out:
  1447                           
  1448                           ;incstack = 0
  1449                           ; Regs used in _LCD_Out: [wreg-fsr0h+status,2+status,0]
  1450                           ;LCD_Out@c stored from wreg
  1451  071D  00F3               	movwf	LCD_Out@c
  1452  071E                     l903:
  1453                           
  1454                           ;lcd.c: 20:     if ( c & 1 ){
  1455  071E  1C73               	btfss	LCD_Out@c,0
  1456  071F  2F21               	goto	u311
  1457  0720  2F22               	goto	u310
  1458  0721                     u311:
  1459  0721  2F39               	goto	l907
  1460  0722                     u310:
  1461  0722                     l905:
  1462                           
  1463                           ;lcd.c: 21:         *(lcd.PORT) |= 1 << lcd.D4;
  1464  0722  3001               	movlw	1
  1465  0723  00F0               	movwf	??_LCD_Out
  1466  0724  1283               	bcf	3,5	;RP0=0, select bank0
  1467  0725  1303               	bcf	3,6	;RP1=0, select bank0
  1468  0726  083B               	movf	_lcd+3,w
  1469  0727  3907               	andlw	7
  1470  0728  3E01               	addlw	1
  1471  0729  2F2C               	goto	u324
  1472  072A                     u325:
  1473  072A  1003               	clrc
  1474  072B  0DF0               	rlf	??_LCD_Out,f
  1475  072C                     u324:
  1476  072C  3EFF               	addlw	-1
  1477  072D  1D03               	skipz
  1478  072E  2F2A               	goto	u325
  1479  072F  0870               	movf	??_LCD_Out,w
  1480  0730  00F1               	movwf	??_LCD_Out+1
  1481  0731  0838               	movf	_lcd,w
  1482  0732  0084               	movwf	4
  1483  0733  1783               	bsf	3,7
  1484  0734  1C39               	btfss	_lcd+1,0
  1485  0735  1383               	bcf	3,7
  1486  0736  0871               	movf	??_LCD_Out+1,w
  1487  0737  0480               	iorwf	0,f
  1488                           
  1489                           ;lcd.c: 22:     }
  1490  0738  2F50               	goto	l909
  1491  0739                     l907:
  1492                           
  1493                           ;lcd.c: 24:          *(lcd.PORT) &= ~(1 << lcd.D4);
  1494  0739  3001               	movlw	1
  1495  073A  00F0               	movwf	??_LCD_Out
  1496  073B  1283               	bcf	3,5	;RP0=0, select bank0
  1497  073C  1303               	bcf	3,6	;RP1=0, select bank0
  1498  073D  083B               	movf	_lcd+3,w
  1499  073E  3907               	andlw	7
  1500  073F  3E01               	addlw	1
  1501  0740  2F43               	goto	u334
  1502  0741                     u335:
  1503  0741  1003               	clrc
  1504  0742  0DF0               	rlf	??_LCD_Out,f
  1505  0743                     u334:
  1506  0743  3EFF               	addlw	-1
  1507  0744  1D03               	skipz
  1508  0745  2F41               	goto	u335
  1509  0746  0870               	movf	??_LCD_Out,w
  1510  0747  3AFF               	xorlw	255
  1511  0748  00F1               	movwf	??_LCD_Out+1
  1512  0749  0838               	movf	_lcd,w
  1513  074A  0084               	movwf	4
  1514  074B  1783               	bsf	3,7
  1515  074C  1C39               	btfss	_lcd+1,0
  1516  074D  1383               	bcf	3,7
  1517  074E  0871               	movf	??_LCD_Out+1,w
  1518  074F  0580               	andwf	0,f
  1519  0750                     l909:
  1520                           
  1521                           ;lcd.c: 27:     if ( c & 2 ) {
  1522  0750  1CF3               	btfss	LCD_Out@c,1
  1523  0751  2F53               	goto	u341
  1524  0752  2F54               	goto	u340
  1525  0753                     u341:
  1526  0753  2F6C               	goto	l913
  1527  0754                     u340:
  1528  0754                     l911:
  1529                           
  1530                           ;lcd.c: 28:         *(lcd.PORT) |= 1 << lcd.D5;
  1531  0754  3001               	movlw	1
  1532  0755  00F0               	movwf	??_LCD_Out
  1533  0756  0C3B               	rrf	_lcd+3,w
  1534  0757  00F1               	movwf	??_LCD_Out+1
  1535  0758  0CF1               	rrf	??_LCD_Out+1,f
  1536  0759  0C71               	rrf	??_LCD_Out+1,w
  1537  075A  3907               	andlw	7
  1538  075B  3E01               	addlw	1
  1539  075C  2F5F               	goto	u354
  1540  075D                     u355:
  1541  075D  1003               	clrc
  1542  075E  0DF0               	rlf	??_LCD_Out,f
  1543  075F                     u354:
  1544  075F  3EFF               	addlw	-1
  1545  0760  1D03               	skipz
  1546  0761  2F5D               	goto	u355
  1547  0762  0870               	movf	??_LCD_Out,w
  1548  0763  00F2               	movwf	??_LCD_Out+2
  1549  0764  0838               	movf	_lcd,w
  1550  0765  0084               	movwf	4
  1551  0766  1783               	bsf	3,7
  1552  0767  1C39               	btfss	_lcd+1,0
  1553  0768  1383               	bcf	3,7
  1554  0769  0872               	movf	??_LCD_Out+2,w
  1555  076A  0480               	iorwf	0,f
  1556                           
  1557                           ;lcd.c: 29:     }
  1558  076B  2F84               	goto	l915
  1559  076C                     l913:
  1560                           
  1561                           ;lcd.c: 31:         *(lcd.PORT) &= ~(1 << lcd.D5);
  1562  076C  3001               	movlw	1
  1563  076D  00F0               	movwf	??_LCD_Out
  1564  076E  0C3B               	rrf	_lcd+3,w
  1565  076F  00F1               	movwf	??_LCD_Out+1
  1566  0770  0CF1               	rrf	??_LCD_Out+1,f
  1567  0771  0C71               	rrf	??_LCD_Out+1,w
  1568  0772  3907               	andlw	7
  1569  0773  3E01               	addlw	1
  1570  0774  2F77               	goto	u364
  1571  0775                     u365:
  1572  0775  1003               	clrc
  1573  0776  0DF0               	rlf	??_LCD_Out,f
  1574  0777                     u364:
  1575  0777  3EFF               	addlw	-1
  1576  0778  1D03               	skipz
  1577  0779  2F75               	goto	u365
  1578  077A  0870               	movf	??_LCD_Out,w
  1579  077B  3AFF               	xorlw	255
  1580  077C  00F2               	movwf	??_LCD_Out+2
  1581  077D  0838               	movf	_lcd,w
  1582  077E  0084               	movwf	4
  1583  077F  1783               	bsf	3,7
  1584  0780  1C39               	btfss	_lcd+1,0
  1585  0781  1383               	bcf	3,7
  1586  0782  0872               	movf	??_LCD_Out+2,w
  1587  0783  0580               	andwf	0,f
  1588  0784                     l915:
  1589                           
  1590                           ;lcd.c: 34:     if ( c & 4 ) {
  1591  0784  1D73               	btfss	LCD_Out@c,2
  1592  0785  2F87               	goto	u371
  1593  0786  2F88               	goto	u370
  1594  0787                     u371:
  1595  0787  2F9D               	goto	l919
  1596  0788                     u370:
  1597  0788                     l917:
  1598                           
  1599                           ;lcd.c: 35:         *(lcd.PORT) |= 1 << lcd.D6;
  1600  0788  3001               	movlw	1
  1601  0789  00F0               	movwf	??_LCD_Out
  1602  078A  083C               	movf	_lcd+4,w
  1603  078B  3907               	andlw	7
  1604  078C  3E01               	addlw	1
  1605  078D  2F90               	goto	u384
  1606  078E                     u385:
  1607  078E  1003               	clrc
  1608  078F  0DF0               	rlf	??_LCD_Out,f
  1609  0790                     u384:
  1610  0790  3EFF               	addlw	-1
  1611  0791  1D03               	skipz
  1612  0792  2F8E               	goto	u385
  1613  0793  0870               	movf	??_LCD_Out,w
  1614  0794  00F1               	movwf	??_LCD_Out+1
  1615  0795  0838               	movf	_lcd,w
  1616  0796  0084               	movwf	4
  1617  0797  1783               	bsf	3,7
  1618  0798  1C39               	btfss	_lcd+1,0
  1619  0799  1383               	bcf	3,7
  1620  079A  0871               	movf	??_LCD_Out+1,w
  1621  079B  0480               	iorwf	0,f
  1622                           
  1623                           ;lcd.c: 36:     }
  1624  079C  2FB2               	goto	l921
  1625  079D                     l919:
  1626                           
  1627                           ;lcd.c: 38:         *(lcd.PORT) &= ~(1 << lcd.D6);
  1628  079D  3001               	movlw	1
  1629  079E  00F0               	movwf	??_LCD_Out
  1630  079F  083C               	movf	_lcd+4,w
  1631  07A0  3907               	andlw	7
  1632  07A1  3E01               	addlw	1
  1633  07A2  2FA5               	goto	u394
  1634  07A3                     u395:
  1635  07A3  1003               	clrc
  1636  07A4  0DF0               	rlf	??_LCD_Out,f
  1637  07A5                     u394:
  1638  07A5  3EFF               	addlw	-1
  1639  07A6  1D03               	skipz
  1640  07A7  2FA3               	goto	u395
  1641  07A8  0870               	movf	??_LCD_Out,w
  1642  07A9  3AFF               	xorlw	255
  1643  07AA  00F1               	movwf	??_LCD_Out+1
  1644  07AB  0838               	movf	_lcd,w
  1645  07AC  0084               	movwf	4
  1646  07AD  1783               	bsf	3,7
  1647  07AE  1C39               	btfss	_lcd+1,0
  1648  07AF  1383               	bcf	3,7
  1649  07B0  0871               	movf	??_LCD_Out+1,w
  1650  07B1  0580               	andwf	0,f
  1651  07B2                     l921:
  1652                           
  1653                           ;lcd.c: 41:     if ( c & 8 ) {
  1654  07B2  1DF3               	btfss	LCD_Out@c,3
  1655  07B3  2FB5               	goto	u401
  1656  07B4  2FB6               	goto	u400
  1657  07B5                     u401:
  1658  07B5  2FCE               	goto	l925
  1659  07B6                     u400:
  1660  07B6                     l923:
  1661                           
  1662                           ;lcd.c: 42:          *(lcd.PORT) |= 1 << lcd.D7;
  1663  07B6  3001               	movlw	1
  1664  07B7  00F0               	movwf	??_LCD_Out
  1665  07B8  0C3C               	rrf	_lcd+4,w
  1666  07B9  00F1               	movwf	??_LCD_Out+1
  1667  07BA  0CF1               	rrf	??_LCD_Out+1,f
  1668  07BB  0C71               	rrf	??_LCD_Out+1,w
  1669  07BC  3907               	andlw	7
  1670  07BD  3E01               	addlw	1
  1671  07BE  2FC1               	goto	u414
  1672  07BF                     u415:
  1673  07BF  1003               	clrc
  1674  07C0  0DF0               	rlf	??_LCD_Out,f
  1675  07C1                     u414:
  1676  07C1  3EFF               	addlw	-1
  1677  07C2  1D03               	skipz
  1678  07C3  2FBF               	goto	u415
  1679  07C4  0870               	movf	??_LCD_Out,w
  1680  07C5  00F2               	movwf	??_LCD_Out+2
  1681  07C6  0838               	movf	_lcd,w
  1682  07C7  0084               	movwf	4
  1683  07C8  1783               	bsf	3,7
  1684  07C9  1C39               	btfss	_lcd+1,0
  1685  07CA  1383               	bcf	3,7
  1686  07CB  0872               	movf	??_LCD_Out+2,w
  1687  07CC  0480               	iorwf	0,f
  1688                           
  1689                           ;lcd.c: 43:     }
  1690  07CD  2FE6               	goto	l97
  1691  07CE                     l925:
  1692                           
  1693                           ;lcd.c: 45:          *(lcd.PORT) &= ~(1 << lcd.D7);
  1694  07CE  3001               	movlw	1
  1695  07CF  00F0               	movwf	??_LCD_Out
  1696  07D0  0C3C               	rrf	_lcd+4,w
  1697  07D1  00F1               	movwf	??_LCD_Out+1
  1698  07D2  0CF1               	rrf	??_LCD_Out+1,f
  1699  07D3  0C71               	rrf	??_LCD_Out+1,w
  1700  07D4  3907               	andlw	7
  1701  07D5  3E01               	addlw	1
  1702  07D6  2FD9               	goto	u424
  1703  07D7                     u425:
  1704  07D7  1003               	clrc
  1705  07D8  0DF0               	rlf	??_LCD_Out,f
  1706  07D9                     u424:
  1707  07D9  3EFF               	addlw	-1
  1708  07DA  1D03               	skipz
  1709  07DB  2FD7               	goto	u425
  1710  07DC  0870               	movf	??_LCD_Out,w
  1711  07DD  3AFF               	xorlw	255
  1712  07DE  00F2               	movwf	??_LCD_Out+2
  1713  07DF  0838               	movf	_lcd,w
  1714  07E0  0084               	movwf	4
  1715  07E1  1783               	bsf	3,7
  1716  07E2  1C39               	btfss	_lcd+1,0
  1717  07E3  1383               	bcf	3,7
  1718  07E4  0872               	movf	??_LCD_Out+2,w
  1719  07E5  0580               	andwf	0,f
  1720  07E6                     l97:
  1721  07E6  0008               	return
  1722  07E7                     __end_of_LCD_Out:
  1723  007E                     btemp	set	126	;btemp
  1724  007E                     wtemp0	set	126
  1725                           
  1726                           	psect	config
  1727                           
  1728                           ;Config register CONFIG1 @ 0x2007
  1729                           ;	Oscillator Selection bits
  1730                           ;	FOSC = HS, HS oscillator: High-speed crystal/resonator on RA6/OSC2/CLKOUT and RA7/OSC1
      +                          /CLKIN
  1731                           ;	Watchdog Timer Enable bit
  1732                           ;	WDTE = OFF, WDT disabled and can be enabled by SWDTEN bit of the WDTCON register
  1733                           ;	Power-up Timer Enable bit
  1734                           ;	PWRTE = OFF, PWRT disabled
  1735                           ;	RE3/MCLR pin function select bit
  1736                           ;	MCLRE = ON, RE3/MCLR pin function is MCLR
  1737                           ;	Code Protection bit
  1738                           ;	CP = OFF, Program memory code protection is disabled
  1739                           ;	Data Code Protection bit
  1740                           ;	CPD = OFF, Data memory code protection is disabled
  1741                           ;	Brown Out Reset Selection bits
  1742                           ;	BOREN = OFF, BOR disabled
  1743                           ;	Internal External Switchover bit
  1744                           ;	IESO = OFF, Internal/External Switchover mode is disabled
  1745                           ;	Fail-Safe Clock Monitor Enabled bit
  1746                           ;	FCMEN = OFF, Fail-Safe Clock Monitor is disabled
  1747                           ;	Low Voltage Programming Enable bit
  1748                           ;	LVP = OFF, RB3 pin has digital I/O, HV on MCLR must be used for programming
  1749                           ;	In-Circuit Debugger Mode bit
  1750                           ;	DEBUG = OFF, In-Circuit Debugger disabled, RB6/ICSPCLK and RB7/ICSPDAT are general pur
      +                          pose I/O pins
  1751  2007                     	org	8199
  1752  2007  20F2               	dw	8434

Data Sizes:
    Strings     16
    Constant    0
    Data        15
    BSS         7
    Persistent  0
    Stack       0

Auto Spaces:
    Space          Size  Autos    Used
    COMMON           14     14      14
    BANK0            80      9      31
    BANK1            80      0       0
    BANK3            96      0       0
    BANK2            96      0       0

Pointer List with Targets:

    LCD_putrs@a	PTR const unsigned char  size(1) Largest target is 16
		 -> STR_1(CODE[16]), 

    display.PORT	PTR volatile unsigned char  size(2) Largest target is 1
		 -> PORTC(SFR0[1]), 

    lcd.PORT	PTR volatile unsigned char  size(2) Largest target is 1
		 -> PORTC(SFR0[1]), 

    lcd.PORT	PTR volatile unsigned char  size(2) Largest target is 1
		 -> PORTC(SFR0[1]), 

    S22$PORT	PTR volatile unsigned char  size(2) Largest target is 1
		 -> PORTC(SFR0[1]), 

    F1471.PORT	PTR volatile unsigned char  size(2) Largest target is 1
		 -> PORTC(SFR0[1]), 


Critical Paths under _main in COMMON

    _main->_LCD_Init
    _LCD_putrs->_LCD_putc
    _LCD_putc->_LCD_Out
    _LCD_Init->_LCD_Write
    _LCD_Write->_LCD_Out

Critical Paths under _main in BANK0

    _main->_LCD_Init

Critical Paths under _main in BANK1

    None.

Critical Paths under _main in BANK3

    None.

Critical Paths under _main in BANK2

    None.

Call Graph Tables:

 ---------------------------------------------------------------------------------
 (Depth) Function   	        Calls       Base Space   Used Autos Params    Refs
 ---------------------------------------------------------------------------------
 (0) _main                                                 7     7      0     776
                                              2 BANK0      7     7      0
                           _LCD_Init
                          _LCD_Write
                           _LCD_putc
                          _LCD_putrs
 ---------------------------------------------------------------------------------
 (1) _LCD_putrs                                            3     3      0     255
                                              8 COMMON     3     3      0
                           _LCD_putc
 ---------------------------------------------------------------------------------
 (2) _LCD_putc                                             4     4      0     132
                                              4 COMMON     4     4      0
                            _LCD_Out
 ---------------------------------------------------------------------------------
 (1) _LCD_Init                                             8     3      5     256
                                              8 COMMON     6     1      5
                                              0 BANK0      2     2      0
                          _LCD_Write
 ---------------------------------------------------------------------------------
 (1) _LCD_Write                                            4     4      0     110
                                              4 COMMON     4     4      0
                            _LCD_Out
 ---------------------------------------------------------------------------------
 (3) _LCD_Out                                              4     4      0      88
                                              0 COMMON     4     4      0
 ---------------------------------------------------------------------------------
 Estimated maximum stack depth 3
 ---------------------------------------------------------------------------------

 Call Graph Graphs:

 _main (ROOT)
   _LCD_Init
     _LCD_Write
       _LCD_Out
   _LCD_Write
   _LCD_putc
     _LCD_Out
   _LCD_putrs
     _LCD_putc

 Address spaces:
Name               Size   Autos  Total    Cost      Usage
BANK3               60      0       0       9        0.0%
BITBANK3            60      0       0       8        0.0%
SFR3                 0      0       0       4        0.0%
BITSFR3              0      0       0       4        0.0%
BANK2               60      0       0      11        0.0%
BITBANK2            60      0       0      10        0.0%
SFR2                 0      0       0       5        0.0%
BITSFR2              0      0       0       5        0.0%
BANK1               50      0       0       7        0.0%
BITBANK1            50      0       0       6        0.0%
SFR1                 0      0       0       2        0.0%
BITSFR1              0      0       0       2        0.0%
BANK0               50      9      1F       5       38.8%
BITBANK0            50      0       0       4        0.0%
SFR0                 0      0       0       1        0.0%
BITSFR0              0      0       0       1        0.0%
COMMON               E      E       E       1      100.0%
BITCOMMON            E      0       0       0        0.0%
CODE                 0      0       0       0        0.0%
DATA                 0      0      2D      12        0.0%
ABS                  0      0      2D       3        0.0%
NULL                 0      0       0       0        0.0%
STACK                0      0       0       2        0.0%
EEDATA             100      0       0       0        0.0%


Microchip Technology PIC Macro Assembler V2.32 build 20210201212658 
Symbol Table                                                                                   Mon Apr 12 13:21:45 2021

                      _c 003D                        _i 003E                        pc 0002  
                     l44 0608                       l97 07E6                       fsr 0004  
                    l100 0529                      l121 0710                      l109 071C  
                    l125 05C7                      l137 04CE                      l911 0754  
                    l903 071E                      l921 07B2                      l913 076C  
                    l905 0722                      l923 07B6                      l915 0784  
                    l907 0739                      l931 04ED                      l925 07CE  
                    l917 0788                      l909 0750                      l933 0506  
                    l941 0550                      l919 079D                      l935 050F  
                    l927 04D0                      l951 05AD                      l943 0569  
                    l929 04E7                      l961 0692                      l953 0667  
                    l945 056E                      l937 052B                      l971 06B3  
                    l963 0696                      l955 0678                      l947 0588  
                    l939 0541                      l981 06E1                      l973 06C4  
                    l965 06A0                      l957 0684                      l949 058F  
                    l983 06E7                      l975 06CF                      l967 06A3  
                    l959 0688                      l985 06ED                      l977 06D5  
                    l969 06AD                      l995 06FA                      l987 06F3  
                    l979 06DB                      l989 06F9                      l999 04AB  
                    u310 0722                      u311 0721                      u400 07B6  
                    u401 07B5                      u340 0754                      u324 072C  
                    u341 0753                      u325 072A                      u414 07C1  
                    u334 0743                      u415 07BF                      u335 0741  
                    u424 07D9                      u520 0684                      u504 059C  
                    u425 07D7                      u521 0683                      u505 059A  
                    u370 0788                      u354 075F                      u434 04DA  
                    u530 0692                      u514 05BA                      u371 0787  
                    u355 075D                      u435 04D8                      u531 0691  
                    u515 05B8                      u364 0777                      u444 04FA  
                    u540 06A0                      u365 0775                      u445 04F8  
                    u541 069F                      u525 0680                      u454 051C  
                    u455 051A                      u535 068E                      u384 0790  
                    u464 0535                      u560 04CE                      u385 078E  
                    u545 069C                      u465 0533                      u561 04CD  
                    u617 0630                      u394 07A5                      u570 0641  
                    u395 07A3                      u555 06FD                      u475 0544  
                    u627 0652                      u571 0640                      u484 055D  
                    u580 064B                      u637 056B                      u485 055B  
                    u581 064A                      u494 057B                      u590 0663  
                    u647 05AA                      u495 0579                      u591 0662  
                    u657 06A9                      u667 06B9                      u677 06CA  
                    u687 050A          LCD_Init@display 0078                      _lcd 0038  
                    fsr0 0004                      indf 0000          __end_of_LCD_Out 07E7  
                   l1001 04AE                     l1003 04BB                     l1011 05F0  
                   l1005 04C1                     l1013 05F6                     l1015 05FC  
                   l1007 05C8                     l1041 0627                     l1033 061A  
                   l1017 0602                     l1009 05DB                     l1051 063B  
                   l1027 060E                     l1053 0641                     l1063 064C  
                   l1055 0645                     l1047 062A                     l1039 061D  
                   l1065 0657                     l1057 064B                     l1049 0635  
                   l1067 065D                     STR_1 0009                     _main 05C8  
                   _text 0020                     btemp 007E                     start 0000  
     __size_of_LCD_Write 005B              LCD_Init@cmd 007D       __size_of_LCD_putrs 0025  
       __end_of_LCD_Init 071D         __end_of_LCD_putc 05C8                    ?_main 0070  
                  _PORTA 0005                    _PORTB 0006                    _PORTC 0007  
                  _TRISA 0085                    _TRISB 0086                    _TRISC 0087  
                  pclath 000A                    status 0003                    wtemp0 007E  
        __initialization 07E7             __end_of_main 0667                   ??_main 0031  
              ??_LCD_Out 0070        __end_of_LCD_Write 052A        __end_of_LCD_putrs 04CF  
__end_of__initialization 07FC                ?_LCD_Init 0078                ?_LCD_putc 0070  
         __pcstackCOMMON 0070             __pidataBANK0 0488                LCD_putc@c 0077  
             __pbssBANK0 0038               ??_LCD_Init 002F               ??_LCD_putc 0074  
             __pmaintext 05C8                  _LCD_Out 071D               __stringtab 0003  
                __ptext1 04AA                  __ptext2 052A                  __ptext3 0667  
                __ptext4 04CF                  __ptext5 071D                  main@lcd 0033  
              _LCD_Write 04CF     end_of_initialization 07FC                _LCD_putrs 04AA  
             ?_LCD_Write 0070               ?_LCD_putrs 0070        __size_of_LCD_Init 00B6  
      __size_of_LCD_putc 009E               LCD_Write@c 0077      start_initialization 07E7  
             LCD_putrs@a 007A               LCD_putrs@i 0078               init_fetch0 0497  
            __pdataBANK0 0020                 ?_LCD_Out 0070                ___latbits 0002  
          __pcstackBANK0 002F                 LCD_Out@c 0073              ??_LCD_Write 0074  
            ??_LCD_putrs 0078                __pstrings 0003                 _LCD_Init 0667  
               _LCD_putc 052A                main@F1471 002A              __stringbase 0008  
       __size_of_LCD_Out 00CA       __end_of__stringtab 0009            __size_of_main 009F  
               init_ram0 049B                stringcode 0003                 stringdir 0003  
               stringtab 0003  
